:020000040000FA
:1000000000800010CD0000006193000061930000AB
:100010006193000061930000619300006193000010
:100020006193000061930000619300001D020000D5
:10003000619300000000000085020000499C000060
:1000400061930000DD890000B18900009F890000F4
:100050008D890000356A0000F96B0000196E000000
:100060004971000061930000BD85000061930000AC
:1000700061930000619300006193000061930000B0
:1000800061930000619300006193000061930000A0
:10009000EB8D00006193000061930000619300000C
:1000A0006193000061930000619300006193000080
:1000B0006193000061930000619300006193000070
:1000C00061930000619300006193000000F002F86A
:1000D00000F094F80AA090E8000C82448344AAF14E
:1000E0000107DA4501D100F089F8AFF2090EBAE84C
:1000F0000F0013F0010F18BFFB1A43F0010318475C
:1001000004D9000024D90000103A24BF78C878C16F
:10011000FAD8520724BF30C830C144BF04680C600D
:10012000704700000023002400250026103A28BF55
:1001300078C1FBD8520728BF30C148BF0B60704759
:100140006E290CF0278070290CF0698166290DF06A
:10015000ED8265290DF0EA8267290DF0E7826129B9
:10016000AFF3008003681B0A28BF41F080016929B2
:100170000BF0D48764290BF0D18775290BF0CE875B
:100180006F290CF0F78078290CF03581E9290CF003
:100190009180E4290CF08E80F5290CF08B80EF29FA
:1001A0000CF0F480F8290CF034810368DB0928BFD7
:1001B00041F0800163290CF0D48473290CF0D984B8
:1001C000E3290CF0E484F3290CF0E9840020704763
:1001D0001FB59DE803000BF009FF0CF061FD040062
:1001E000002000210DF088FA401C606000200021F2
:1001F0000DF06CFAE0601FBD10B510BD0CF022FDD3
:100200001146FFF7E5FF00F0BCF80CF0FBFD03B46E
:10021000FFF7F2FF03BC09F0D3FC0000052828BF5C
:1002200070474FEA80007844D0F802F08502000061
:100230004B020000E902000009030000290300004E
:100240004FF0010080F3148800DF0A4C4FF00105E5
:10025000257077460BF084FCBE46074E3668074C87
:100260002660D6F800D001BC05490860BDE8F00F53
:10027000704700BFDF000010F0000010E800001021
:10028000B40000104FF0080282F3118800B50BF0A3
:1002900067FC5DF804EB2DE9F00F0E49086801B426
:1002A0000D4A1268C2F800D00C4C0D4D2E78267005
:1002B0000C4E3668084C2660D6F800D001BC0860A9
:1002C00000280CBF0022082282F31188BDE8F00F3D
:1002D000704700BFB4000010E8000010D400001008
:1002E000D5000010F00000100649086800F1010078
:1002F0004FF0080282F31188002808BF7047086099
:10030000704700BFB40000100649086800281CBFF1
:1003100001380860002818BF70474FF0000282F3D0
:1003200011887047B40000104FF0000080F314886B
:1003300070474FF0010080F31488704788476FF0D2
:10034000FF000AF08DFE000086B000BF05F04AFBFA
:1003500005F075FB012000218202184BCDE9013226
:10036000CDE9031005200346154A009015480AF010
:100370001FFE05E005F0C5FD4FF47A7008F098FE09
:10038000F8E700B585B008F0F0FF08F0B5FF09F018
:10039000AAFD01200021C2020B4BCDE90132CDE9BB
:1003A000031007200346094A0090AFF263000AF0E9
:1003B000FFFD09F05BFE002005B000BD0821001024
:1003C00004310010E1390000080100100421001080
:1003D00010B508F079FD10BD70B50546284602F04D
:1003E000F7FC08E0FFF7F4FF0446432C00D170BD92
:1003F000142008F05DFEF5E770B50546284602F0CA
:100400006CFB08E0FFF7E4FF0446432C00D170BD0D
:10041000142008F04DFEF5E72DE9F04106460127CE
:100420004FF000084BE0012F04D100273146F7A020
:1004300002F0E4FCFFF7CCFF0446362C17D008DCB2
:10044000A4F13100052830D2DFE800F00C0D0E0FCA
:100450001000372C0CD0382C0BD0432C12D0452C4C
:1004600023D117E000BF00BF00BF00BF00BF00BF27
:1004700000BFA4F13000C5B22A463146E5A002F023
:10048000BDFC13E0002D01DD002501E04FF0010867
:1004900001270BE0002D07DD691EE14A52F821001B
:1004A000FFF7AAFF0025012700E000BF00BFB8F159
:1004B000010F01D1BDE8F081142008F0F9FDB2E789
:1004C00070B5002600250121084602F0FFFD3046E8
:1004D00002F07EFC17E0FFF77BFF0446432C06D1B9
:1004E00001F0A5FA0546284601F056FA0CE001F0A5
:1004F0009EFA0546AE4203D02E46304602F068FC16
:10050000C82008F0D5FDE6E700BF0021012002F079
:10051000DDFD4FF47A7008F0CBFD70BD70B500269C
:1005200000250121022002F0D1FD304602F050FCEE
:1005300017E0FFF74DFF0446432C06D101F082FA85
:100540000546284601F044FA0CE001F07BFA054626
:10055000C82008F0ADFDAE4203D02E46304602F072
:1005600037FCE6E700BF0021022002F0AFFD4FF4A8
:100570007A7008F09DFD70BD2DE9FC5F0746884646
:100580004FF0000B002001900024012000904FF05C
:10059000000999E00098012806D100200090224629
:1005A00039469CA002F02AFCFFF712FF0646332EC4
:1005B0000CD004DC312E07D0322E19D105E0432EA9
:1005C0000AD0452E14D10FE000BF00BFA6F13000C5
:1005D000C4B2012000900CE00CB1002401E04FF007
:1005E000010B0120009004E00CB10120019000E01B
:1005F00000BF00BF019800285ED0214689A002F00C
:10060000FDFBB8F1010F19D10521204602F0BCFE17
:100610004CF25031042002F07CFF054675B3A86906
:1006200002F05BFA4FF47A7008F042FD7FA002F00E
:1006300045F84FF47A7008F03BFD1FE04FF0000AD8
:100640001AE00A21204602F09FFE4CF250310420AD
:1006500002F05FFF054605B90FE0A86982445046E5
:1006600002F03BFAA8690A2800D206E0FFF7B0FEC4
:100670000646432E00D100E0E3E700BF601E6D494F
:1006800001EB001090F80290B9F1020F02D0B9F11D
:10069000030F04D1214668A002F0B0FB03E021461D
:1006A00060A002F0ABFB4FF47A7008F001FD00246B
:1006B0000020019001200090BBF1000F01D0BDE8A7
:1006C000FC9F142008F0F4FC64E72DE9FC410026AF
:1006D000002700254FF001082D22042101A80BF06E
:1006E00043FB76E0B8F1010F0DD14FF000089DF803
:1006F000070000909DF806309DF805209DF8041035
:100700004FA002F07BFBFFF763FE04462046342C2B
:100710000FD006DC312809D0322808D0332818D170
:1007200006E043280DD0452813D10FE000BF00BFDD
:1007300000BF2846691CCDB201A90C544FF0010836
:1007400007E00DB1002500E0012602E001270025A9
:1007500000BF00BF0EB1BDE8FC81322008F0A8FC4C
:10076000BFB39DF80400312824D19DF8050032283C
:1007700020D19DF8060033281CD19DF807003428AD
:1007800018D132A001F09AFF04F063FF4FF47A70A1
:1007900008F08EFC25A001F091FF4FF47A7008F06C
:1007A00087FC2CA001F08AFF4FF47A7008F080FCDF
:1007B0000027D0E71DA001F081FF4FF47A7008F008
:1007C00077FC2D22042101A80BF0CEFA4FF001088E
:1007D000002787E72DE9F0410024002600274FF08D
:1007E00001081EA006F0E6F9E7E0B8F1010F04D118
:1007F0004FF000081DA001F061FFFFF7E9FD05467D
:10080000A5F13000162870D234E0000055253032B2
:10081000642E300055253032642E2564000000001F
:100820008C4300104850256430000000232323230C
:1008300000000000D433001048502564450000003B
:10084000256325632563256300000000434C454173
:100850000000000030303030000000004D4E5F7569
:100860007365724D656E750D0A0000005530302EAF
:1008700030000000DFE800F0140B0C0D0E0F10111B
:10088000121339393939393939393931392700BFF2
:1008900000BF00BF00BF00BF00BF00BF00BF00BF60
:1008A000A5F1300004EB840100EB4100C4B2632CDD
:1008B00001DD002000E0204604462146AFF2B400EE
:1008C00002F09CFA12E03CB10127AFF2A00001F067
:1008D000F5FEC82008F0ECFB08E00CB1002400E0B5
:1008E00001264FF0010801E0FFE700BF00BF16B18D
:1008F0000020BDE8F081142008F0DAFB012F5CD164
:10090000082C36D006DC52D2DFE804F051151A1F4D
:1009100024252A2F152C38D006DC092C2AD00A2CA5
:1009200029D0142C43D12BE0162C33D0172C36D0E1
:10093000632C3CD138E0FE490868FFF74DFD37E0F5
:10094000FB494868FFF748FD32E0F9490869FFF7BD
:1009500043FD2DE02CE0F6494869FFF73DFD27E017
:10096000F3498869FFF738FD22E00720FFF754FDBF
:100970001EE01DE01CE0EE498868FFF72DFD17E042
:1009800001F02CFAFFF79CFD12E001F027FAFFF7C7
:10099000C5FD0DE001211620FFF7EEFD08E0002166
:1009A0001720FFF7E9FD03E0FFF78FFE00E000BF2F
:1009B00000BF002700244FF0010816E72DE9FC5F77
:1009C00005460E464FF0000A4FF0010B00270020AD
:1009D0000190804655F8260001F0C4F98146C846CA
:1009E0006BE0BBF1010F07D14FF0000B404601F067
:1009F000D7F9009002F0ECF9FFF7EAFC0446A4F105
:100A00003000162851D2DFE800F0140B0C0D0E0F49
:100A10001011121350505050505050505047501E0B
:100A200000BF00BF00BF00BF00BF00BF00BF00BFCE
:100A300000BF3FB1A4F1300008EB880100EB410892
:100A40004FF0010B32E0D7B10027404601F0A8F982
:100A500045F82600AFF22C2001F030FE4FF4FA707A
:100A600008F026FB404601F09BF9009002F0B0F937
:100A70004FF4FA7008F01CFB0120019009E0AFF27E
:100A8000542001F01BFEC82008F012FB01274FF094
:100A900000084FF0010B09E027B100274FF0010BD0
:100AA000C84601E04FF0010A00E000BF00BFBAF104
:100AB000010F02D10198BDE8FC9F92E72DE9F047B4
:100AC00090B005460027B9464FF0010A402168461C
:100AD0000BF074F9B846A3E0BAF1010F28D14FF03A
:100AE000000A00241EE0012D05D1924850F8240090
:100AF0004DF8240014E0022D05D18F4850F8240051
:100B00004DF824000CE0032D06D18C4800EB0410B6
:100B1000C0684DF8240003E05DF824004DF824007F
:100B2000601CC4B2102CDEDB294685A002F066F9F9
:100B3000FFF74EFC0646362E17D008DCA6F1310032
:100B400005285CD2DFE800F00C0D0E0F1000372EE8
:100B50000CD0382E0BD0432E12D0452E4FD118E09A
:100B600000BF00BF00BF00BF00BF00BF00BF3246D4
:100B7000294675A002F042F9A6F13000C7B23FE065
:100B8000002F03DD00274FF0010A01E04FF00109BB
:100B900036E0002F30DD781EC1B26846FFF70EFF49
:100BA000002828DD00241EE0012D05D15DF8241069
:100BB000604840F8241014E0022D05D15DF824109F
:100BC0005D4840F824100CE0032D06D15DF82400A8
:100BD0005A4901EB0411C86003E05DF824004DF8A8
:100BE0002400601CC4B2102CDEDB04F058FA08F1BB
:100BF00001001FFA80F800274FF0010A00E000BF53
:100C000000BFB9F1000F08DDB8F1000F03DD0120CE
:100C100010B0BDE8F0870020FAE7322008F048FA6B
:100C20005AE72DE9F04F9FB0074600201E900120A3
:100C30001D904FF0000B00201C900026142115A8D9
:100C40000BF0BCF8142110A80BF0B8F8B146B04670
:100C500001200D90002415E0381D035D083050F888
:100C6000242021463AA005F0A5FF07F10C0050F81A
:100C7000241005A840F82410381D015D03A8015573
:100C8000601CC4B2082CE7DB3868029000E21D98B3
:100C900001281BD100201D90B9F1000F17D10D982C
:100CA00001280DD1AFF27C4001F008FD4FF4FA703D
:100CB00008F0FEF900200D90029801F053F8064666
:100CC000304601F06DF8019002F082F823E10D98B2
:100CD000012874D100200D90AFF2B04001F0EEFC7D
:100CE0004FF4FA7008F0E4F9A9F1010105AA52F8ED
:100CF000210001F037F81B90142115A80BF05EF8C5
:100D0000002500200F9032E00A211B98B0FBF1F281
:100D100001FB12000E901B98B0FBF1F01B901249E2
:100D20000E980A5C0F98411CC9B20F9110A91DE0E2
:100D300070430010BC3F0010B0430010D4330010CB
:100D4000413025642E300000413025642E2563009B
:100D50007261746F5B25645D2063683D2564206E5D
:100D6000756D3D25640D0A0030D700000A541B98AC
:100D70000028C9D10F98042804DA0F98C0F10400A4
:100D80002844C5B2FA4800788DF857000F9C09E056
:100D9000601E10A90A5C2846691CCDB215A90A5428
:100DA000601EC4B2002CF3DCF24800791A901A9845
:100DB000012805D0022814D0032849D129E07CE07D
:100DC0009DF8560030B9EA48007840F080008DF870
:100DD000560005E09DF8560040F080008DF8560062
:100DE00037E09DF8550030B9E148007840F08000C8
:100DF0008DF8550005E09DF8550040F080008DF815
:100E000055009DF8560018B9D94800788DF856005D
:100E10001FE09DF8540030B9D548007840F08000BC
:100E20008DF8540005E09DF8540040F080008DF8E6
:100E300054009DF8550018B9CD4800788DF855003C
:100E40009DF8560018B9CA4800788DF8560000E0A1
:100E500000BF00BF40222846691CCDB215A90A5424
:100E6000A9F1010003A90E5C0A20B6FBF0F0C0490D
:100E70000A5C2846691CCDB215A90A540A20B6FBA3
:100E8000F0F100FB1160BA490A5C2846691CCDB23A
:100E900015A90A5400222846691CCDB215A90A5486
:100EA0002846691CCDB215A90A542846691CCDB242
:100EB00015A90A54E81F00F0FF08BBF1000F04D089
:100EC0000821A81F15AA115403E04021A81F15AA44
:100ED00011540A20B6FBF0F0A549095C681F15AA59
:100EE00011540A20B6FBF0F100FB1160A049095C27
:100EF000281F1154944608F1030E1CF80E3008F117
:100F0000020E1CF80E2008F1010E1CF80E101CF841
:100F1000080006F03AFFFFF75BFA8246AAF13000BC
:100F200016287DD2DFE800F0140B0C0D0E0F101107
:100F30001213ABABA1AB97ABABABAB5BAB3300BFAF
:100F400000BF00BF00BF00BF00BF00BF00BF00BFA9
:100F5000BBF1000F0ED0AAF1300006EB860100EBCA
:100F60004106B9F1000F02D0632E00D900260120FE
:100F70001D900BE0AAF13000092190FBF1F201FB7A
:100F8000120000F0FF0901201D900D9078E0BBF1E8
:100F9000000F17D04FF0000BB9F1000F04D130460D
:100FA00000F0FEFE029008E06420B6FBF0F100FBCA
:100FB0001166A9F1010003A90E5401201D900D90A6
:100FC0001C9009E0AFF29C7001F078FBC82008F09B
:100FD0006FF84FF0010B002601201D9050E0BBF18F
:100FE000000F05D04FF0000B01201D900D9031E057
:100FF0000026002408E005A850F8241003A8005D8E
:1010000001FB0066601CC4B2082CF4DB0298B042FD
:1010100017D159A001F052FB0298386000240DE06E
:101020002DE005A850F8241007F10C0040F824101A
:1010300003A8015D381D0155601CC4B2082CF0DB0B
:1010400006E04FA001F03AFB4FF47A7008F030F858
:1010500001201E9014E0281F404505DD08F1010025
:1010600000F0FF0801201D900AE0B8F1000F05DD37
:10107000A8F1010000F0FF0801201D9000E000BF72
:1010800000BF1E98012803D11C981FB0BDE8F08F47
:10109000FDE52DE9F047824600270025A8464FF0E0
:1010A000010955E0B9F1010F07D14FF000093148AE
:1010B0008678314634A001F0A1FEFFF789F9044695
:1010C000302C06D0312C05D0432C29D0452C30D1E2
:1010D00009E000BF35B1A4F13000C6B231462AA004
:1010E00001F08CFE26E07DB10025224886700127A4
:1010F0004FF00109AFF6CC0001F0E0FAC82007F08C
:10110000D7FF03F0CCFF0AE0AFF6E00001F0D6FA1B
:10111000C82007F0CDFF1EA001F070FE012509E0F8
:10112000002D03DD00254FF0010901E04FF001081B
:1011300000E000BF00BFB8F1000F06DD002F02DDA8
:101140000120BDE8F0870020FBE7322007F0B0FF68
:10115000A8E72DE9F05F00270025A8464FF0010918
:101160000449886800F0FEFD824656467EE0000095
:1011700030D7000008310010485030300000000027
:10118000485045450000000043452D2564000000FF
:1011900043452D3000000000B9F1010F07D14FF099
:1011A0000009304600F0FCFD834601F011FEFFF718
:1011B0000FF90446A4F13000162848D2DFE800F009
:1011C000140B0C0D0E0F10111213474747474747DA
:1011D0004747473E471E00BF00BF00BF00BF00BFDC
:1011E00000BF00BF00BF00BF3DB106EB860004EBAF
:1011F0004000A0F130064FF0010929E095B100252B
:10120000304600F0CDFDFC49886001274FF0010910
:10121000AFF6E81001F052FAC82007F049FF03F0DA
:101220003EFF0AE0AFF6FC1001F048FAC82007F0D4
:101230003FFF00264FF00109012509E0002D03DDE5
:1012400000254FF0010901E04FF0010800E000BF68
:1012500000BFB8F1000F06DD002F02DD0120BDE860
:10126000F09F0020FBE7322007F022FF94E72DE9F2
:10127000F047824600270025A8464FF001095FE0AD
:10128000B9F1010F08D14FF0000900F041FB06460B
:101290003146DAA001F0B2FDFFF79AF80446332C8C
:1012A0000FD006DC302C09D0312C08D0322C38D1AC
:1012B00006E0432C2CD0452C33D10BE000BF00BFFF
:1012C00000BF35B1A4F13000C6B23146CBA001F069
:1012D00095FD27E085B10025304600F01CFB012775
:1012E0004FF00109AFF6BC2001F0E8F9C82007F083
:1012F000DFFE03F0D4FE0AE0AFF6D02001F0DEF905
:10130000C82007F0D5FEBFA001F078FD012509E057
:10131000002D03DD00254FF0010901E04FF0010829
:1013200000E000BF00BFB8F1000F06DD002F02DDB6
:101330000120BDE8F0870020FBE7322007F0B8FE6F
:101340009EE72DE9F047824600270025A8464FF08A
:1013500001095FE0B9F1010F08D14FF0000900F079
:10136000CEFA06463146A9A001F048FDFFF730F855
:101370000446332C0FD006DC302C09D0312C08D099
:10138000322C38D106E0432C2CD0452C33D10BE045
:1013900000BF00BF00BF35B1A4F13000C6B2314676
:1013A0009AA001F02BFD27E085B10025304600F022
:1013B00080FA01274FF00109AFF6903001F07EF975
:1013C000C82007F075FE03F06AFE0AE0AFF6A4300D
:1013D00001F074F9C82007F06BFE8EA001F00EFD3D
:1013E000012509E0002D03DD00254FF0010901E092
:1013F0004FF0010800E000BF00BFB8F1000F06DDAC
:10140000002F02DD0120BDE8F0870020FBE732203D
:1014100007F04EFE9EE72DE9F04706460F460025F1
:10142000A9464FF0010AA84660E0BAF1010F05D1C4
:101430004FF0000A314679A001F0E0FCFEF7C8FF4A
:101440000446362C17D008DCA4F1310005283DD223
:10145000DFE800F00C0D0E0F1000372C0CD0382CEC
:101460000BD0432C12D0452C30D118E000BF00BF68
:1014700000BF00BF00BF00BF00BF2246314669A0C9
:1014800001F0BCFCA4F13000C5B220E0002D03DD6A
:1014900000254FF0010A01E04FF0010917E0002D8F
:1014A00011DD691E01EB410202EBC10107EB810076
:1014B000FFF7B7FB002805DD03F0F1FD08F101009F
:1014C0001FFA80F800254FF0010A00E000BF00BFBE
:1014D000B9F1000F07DDB8F1000F02DD0120BDE812
:1014E000F0870020FBE7322007F0E2FD9DE72DE9C1
:1014F000F04704464FF0000800264FF00109B246BD
:10150000277860E0B9F1010F08D14FF000093846A3
:1015100001F0E3FA394646A005F04CFBFEF758FF10
:101520000546332D0FD006DC302D09D0312D08D0E3
:10153000322D3DD106E0432D0CD0452D38D112E09F
:1015400000BF00BF00BF26B1A5F13000C7B24FF009
:1015500001092EE026B1002627784FF0010901E0AD
:101560004FF0010825E0BEB100262770AFF64450C9
:1015700001F0A4F84FF4FA7007F09AFD384601F034
:10158000ACFA4FF4FA7007F093FD4FF0010803F046
:1015900086FD4FF0010A08E0AFF6705001F08EF8BA
:1015A000C82007F085FD012600274FF0010900E063
:1015B00000BF00BFB8F1000F02D05046BDE8F08771
:1015C000322007F075FD9DE72DE9F04701274FF028
:1015D00000080025A9460024E9E0012F03D10027D7
:1015E00016A001F06BF8FEF7F3FE0646A6F13000F8
:1015F000162861D226E000000831001043412D2555
:101600006400000043412D3000000000432D2D25D3
:1016100064000000432D2D300000000041253032D1
:10162000642E300041253032642E25630000000016
:10163000706F696E743D25640D0A00004130302ED4
:1016400030000000DFE800F0140B0C0D0E0F10113D
:10165000121338383838383838383831382600BF1F
:1016600000BF00BF00BF00BF00BF00BF00BF00BF82
:1016700005EB850006EB40003038C5B2632D01DD77
:10168000002000E0284605462946AFF2700001F030
:10169000B5FB12E045B14FF00109AFF6706001F003
:1016A0000DF8C82007F004FD07E00DB1002501E0AA
:1016B0004FF00108012700E000BF00BFB9F1000FA3
:1016C00068D02E464FF00009002501270C2E5FD26E
:1016D000DFE806F05E060F182A303B45464C5258AC
:1016E00050A000F0EBFF0120FFF7E8F9204484B29E
:1016F0004FE04EA000F0E2FF0220FFF7DFF92044A8
:1017000084B246E04BA000F0D9FF0320FFF7D6F9E2
:10171000204484B2002C06DD48A005F04BFA00F00E
:1017200098FC01F0CCFF34E04B48FFF7E0FE20448A
:1017300084B22EE049A000F0C1FF474908310520DE
:10174000FFF769FE204484B223E046A000F0B6FF14
:1017500046490620FFF75FFE204484B219E018E0F6
:101760000820FFF7EEFD204484B212E00920FFF7C5
:1017700090FC204484B20CE00A20FFF778FD20445E
:1017800084B206E00B20FFF7E4FC204484B200E0C2
:1017900000BF00BFB8F1010F06D1002C02DD01200F
:1017A000BDE8F0870020FBE7322007F081FC14E75A
:1017B00010B5002431E0FEF70BFE044664B3442C60
:1017C00008D100202A4908702A480078401C29497D
:1017D00008700FE03E2C08D10020264908702448EC
:1017E0000078401C2249087004E00020214908705C
:1017F0001F4908701E480078032804DB00201C499C
:101800000870022010BD1B480078032805DB00206B
:10181000184908700120F5E700E0CCE700BF002080
:10182000F0E700004130312E300000004130322E10
:10183000300000004130332E300000004D454E5541
:101840003A686F70706572206368616E6765642EB8
:101850002E2E0D0A000000000C3100104130352EF4
:10186000300000004130362E30000000743200108D
:101870000000001001000010F749097821F00F0165
:10188000F54A11701146097800F00F021143F24A2F
:1018900011707047F049097821F0F001EE4A11709B
:1018A0001146097800F00F0241EA0211EA4A11706C
:1018B0007047E949497821F00F01E74A5170114614
:1018C000497800F00F021143E34A51707047E24932
:1018D000497821F0F001E04A51701146497800F052
:1018E0000F0241EA0211DC4A51707047DA48007871
:1018F00000F00F007047D848007800097047D648BC
:10190000407800F00F007047D348407800097047D6
:10191000D148C0787047D049C870704710B50446A8
:10192000FFF7E4FF022803D1204602F004FA10BDBD
:101930000120FCE700B50146FFF7EAFF022801D1CC
:10194000C6480173012000BD70B50446FFF7D7FFFC
:10195000022804D1204603F01EF805461AE0FFF7DE
:10196000CEFF012809D1012C03D103F0F9FE054671
:1019700010E003F0C7FE05460CE0FFF7C0FF0328A8
:1019800008D1012C03D103F0B2FF054602E003F0B9
:1019900080FF0546284670BD10B50146FFF7A6FF3B
:1019A00002460023022A10D1AD484068884205D380
:1019B000AB484068401AAA4C606007E0A8484068FD
:1019C0000B1A0020A64C606000E00B46184610BDC4
:1019D00070B50446FFF793FF05460026022D15D18A
:1019E000A048D0F89800A04207D39E48D0F89800AD
:1019F000001B9C49C1F8980017E09A48D0F898005D
:101A0000261A00209749C1F898000EE0012D04D154
:101A1000204603F0ADFF064607E0032D04D1204623
:101A200003F0A6FF064600E02646304670BD00B52E
:101A3000FFF75CFF0146022902D18948406800BDDA
:101A40000020FCE710B5FFF75AFF0446022C03D133
:101A50008448D0F8980010BD012C02D103F085FF16
:101A6000F9E7032C02D103F080FFF4E70020F2E74E
:101A700070B50024FFF73AFF0546022D18D17848CB
:101A8000007840F00100764908700846408840F030
:101A90000100488002F0ABFC0446012C09D17048DB
:101AA000007820F001006E4908700020488000E0B6
:101AB0000024204670BD70B50025FFF720FF0446C6
:101AC000022C1AD16748007B40F001006549087379
:101AD0000846C08940F001016248C18103F0F9F86D
:101AE0000546012D18D15F48007B20F001005D49BB
:101AF000087300215B48C1810EE0012C05D15649D5
:101B0000887803F01BFE012506E0032C04D152491E
:101B1000887803F0DAFE0125FFF7F6FE0446012C73
:101B200002D100F096FA0125284670BD00B5FFF7F6
:101B3000DDFE0246022A08D149480178007820F0EB
:101B40008000474B1870084600BD0020FCE700B538
:101B5000FFF7CCFE0146022902D14148408800BD72
:101B60000020FCE770B50024FFF7C9FE0546022DF2
:101B700007D13C48047B007B20F080003949087382
:101B80000FE0FFF7BCFE0546012D01D0032D08D163
:101B900003F001FF012802D124F0020401E044F027
:101BA0000204204670BD10B5FFF7A9FE02460023CF
:101BB000022A02D12B48C38915E0FFF7A5FE024691
:101BC000012A0FD10023002109E0274800EB011072
:101BD00080784C00A040184383B2481CC1B2082949
:101BE000F3DB00E00023184610BD2DE9F84F064650
:101BF0004FF0000AD34616B90020BDE8F88F184808
:101C0000807B08B90020F8E7002400251EE0144876
:101C1000D03050F82570423830F81580A7B1B8F1AF
:101C2000000F11DD4FF0000907E03C44B44200D939
:101C300005E009F101001FFA80F9C145F5DB00BF9D
:101C4000B44201D9E41B03E0681CC5B2102DDEDBF1
:101C500000BF5CB90020D0E7083100101444001028
:101C6000983F0010CC400010D43300106248007838
:101C700000F0020010B14FF0000A04E04FF0010A3A
:101C80000020FFF74BFE5D48007B00F0020010B122
:101C90004FF0000B04E04FF0010B0020FFF754FE63
:101CA000642007F005FA204602F051FB0090642002
:101CB00007F0FEF9BBF1010F02D10120FFF744FE4E
:101CC000BAF1010F02D10120FFF728FE009894E736
:101CD0002DE9FF41074600200090019002900390FB
:101CE00017B904B0BDE8F0814FF000084248007811
:101CF00000F0020008B1002603E001260020FFF7F3
:101D00000DFE3E48007B00F0020008B1002503E014
:101D100001250020FFF718FE642007F0C9F9FFF73E
:101D2000F3FD0446022C04D1384602F0F8FE80464A
:101D300009E0012C05D16946384600F092FB804647
:101D400001E04FF00008642007F0B2F9012D02D144
:101D50000120FFF7F9FD012E02D10120FFF7DEFD82
:101D60004046BEE701460020254A127932B1012AD9
:101D700008D0022A0AD0032A0ED109E06422B1FB5E
:101D8000F2F00BE00A22B1FBF2F007E0084605E0B2
:101D900001EB8102500001E0084600BF00BF704720
:101DA00001460020164A127932B1012A08D0022ACF
:101DB0000AD0032A0ED109E0642201FB02F00BE0F5
:101DC00001EB8102500007E0084605E00A22B1FB62
:101DD000F2F001E0084600BF00BF704710B5FFF702
:101DE00026FE04462046FFF7D7FDFFF72BFE0446EC
:101DF0002046FFF7EDFD10BD983F0010CC400010CD
:101E0000083100102DE9F05F07468946924600240C
:101E10004021F84809F0D2FFB9F1500F03D1F6483C
:101E2000C05D401C01E0F448C05DF349C855ED2297
:101E30002046611CCCB2F1490A5408222046611C9C
:101E4000CCB2EE490A54EC48C25D2046611CCCB2CB
:101E5000EA490A542046611CCCB2E84901F80090D6
:101E60002046611CCCB2E5490F542046611CCCB21F
:101E7000E24901F800A04FEA1A222046611CCCB2C8
:101E8000DE490A540721DD4807F0DEF82146621CCE
:101E9000D4B2DA4A505405F0F9F908F088F808216C
:101EA000D64805F0DCF908F0C0F82146D4A004F0CB
:101EB00081FE002606E0D148815DD5A004F07AFEBF
:101EC000701CC6B2A642F6DBD3A004F073FE002459
:101ED0006420D249C8804BE005F0CEF9012844D1F6
:101EE00005F0DAF905463CB9FD2D41D12046611CCB
:101EF000CCB2C0490D543BE0012C06D1A846204687
:101F0000611CCCB2BB490D5432E0A8F10100A042E3
:101F100025DC2046611CCCB2B6490D54A8F1010065
:101F200081B2B44807F090F88346AB4520D1B14860
:101F30004178BBA004F03EFE002606E0AD48815D7E
:101F4000B3A004F037FE701CC6B2AA484078B04275
:101F5000F4DCB1A004F02EFE0120BDE8F09F204685
:101F6000611CCCB2A3490D5402E0142007F0A0F884
:101F7000AA48C0880028AFD100BFEEE770B504467C
:101F8000207800225121FFF73DFF0646012E40D167
:101F90009848407808283AD12078964909798842AB
:101FA00035D19448C5782078411C2A46A0A004F079
:101FB00001FE05F0020008B1032070BD05F0040029
:101FC00010B905F0800008B10320F6E715B900202C
:101FD000A07014E005F0080010B905F0200008B169
:101FE0000120A07005F0100010B905F0400008B104
:101FF0000220A070A078012801D00220A0707D48A6
:102000008179407961F31F2020810120D5E7632089
:10201000D3E70020D1E72DE9F04105460E46002721
:1020200013E0287832465021FFF7ECFE0446012CDD
:1020300006D170484078062802D10120BDE8F08121
:10204000642007F035F8781CC7B2032FE9DB0020C5
:10205000F4E72DE9F041002700241DE0774800EB6C
:102060000410C668754800EB04100021016041604F
:102070008160C16004EB8401714A02EBC100282138
:1020800009F09CFE6D4800EB0410C6606B4800EB45
:1020900004100470601CC4B2082CDFDB002456E07E
:1020A0000026002510E0654800EB0510C07848B90F
:1020B000624800EB0510C068B04203D95F4800EBEE
:1020C0000510C668681CC5B2082DECDB04EB840063
:1020D0005B4901EBC00046604EB3002525E0574840
:1020E00000EB0510C068B0421DD104EB84005449D8
:1020F00011F8307004EB840011F83000401C04EB40
:1021000084014F4A02F831004C4800EB051104EB02
:10211000840002EBC000083040F827100120474936
:1021200001EB0511C870681CC5B2082DD7DB04EBA4
:102130008400434901EBC000436804EB840011F8BC
:10214000302021463FA004F035FD601CC4B2082CAD
:10215000A6DB44A004F02EFDBDE8F0810246082A6B
:1021600000DC0AB900207047501E344B03EB00100E
:10217000C1600120F7E770B505460C4621462846A8
:10218000FFF749FF0646012E01D0002070BD4FF435
:102190007A7006F08DFF04EB4400C0EBC41041F2EE
:1021A000883101EB40001D4908810FE02846FFF708
:1021B000E5FE0646012E06D12889A04201D1012064
:1021C000E4E70020E2E7642006F072FF134800898C
:1021D0000028EBD100BFD9E72DE9F04104460E46B7
:1021E000002C02DD082C00DC16B90020BDE8F081CF
:1021F00042E00000D43500100200001094350010B9
:1022000048502D53454E445B25645D3A0000000064
:1022100025303278200000000D0A0000CC45001067
:1022200048502D524543565B25645D3A000000003E
:1022300048505B25645D3D25780D0A00D4330010BD
:10224000543400104C6576656C3D2564206E756DC8
:10225000203D25642076616C7565203D2025640D48
:102260000A000000686F70706572496E6974206FB3
:102270007665722E2E0D0A00601ED94901EB0017FB
:1022800031463846FFF7C7FE0546012D02D0002033
:10229000BDE8F0814FF47A7006F00AFF06EB4600C5
:1022A000C0EBC61041F2883101EB4000CD490881F6
:1022B0000AE03846FFF762FE0546012D01D1388954
:1022C000E6E7642006F0F4FEC64800890028F0D155
:1022D00000BFDDE72DE9FE4F05468A461646002081
:1022E000029001908046BAF1000F01D1BDE8FE8F47
:1022F000082D06DB08222946BBA004F05BFC002069
:10230000F4E705EB8500BF4911F8300028B92946EC
:10231000BDA004F04FFC0020E8E7002710E005EB2B
:102320008500B84901EBC000083050F827402079FB
:1023300020B1A07810B90120029008E0781CC7B243
:1023400005EB8500AF4911F83000B842E7DC00BF6B
:10235000029848B305EB8500AA4901EBC00008309C
:1023600050F8274051462046FFF705FF8146B9F156
:10237000010F0DD108EB0A001FFA80F8207836F81B
:10238000100021890844217826F811004046ADE765
:10239000207836F8100021890844217826F81100A9
:1023A000208940441FFA80F8002751E005EB8500A2
:1023B000944901EBC000083050F8274060790128AB
:1023C00000DB43E04FF0000B3CE0AAEB080080B2DA
:1023D000019020460199FFF7CEFE814622784B46B8
:1023E000294692A004F0E6FBB9F1010F0FD1019844
:1023F00040441FFA80F8207836F8100021890844FC
:10240000217826F811000020607140466EE72078A0
:1024100036F8100021890844217826F81100208917
:1024200040441FFA80F8CDF8008023893A4651468F
:1024300088A004F0BFFB6079401C60710BF10100C3
:1024400000F0FF0BBBF1020FBFDB00BF781CC7B26F
:1024500005EB85006B4911F83000B842A6DC404618
:1024600044E72DE9F04705460F464FF0000AD046F5
:102470000026002430E004EB8400624901EBC00038
:10248000406838B304EB840001EBC0004068B5FB42
:10249000F0F01FFA80F8424621467DA004F08AFB46
:1024A0003A4641462046FFF715FF824604EB84007A
:1024B000544901EBC00040680AFB0066AE4201D8F7
:1024C000AD1B00E00025B9F1010F03D115B930466D
:1024D000BDE8F087601CC4B2082CCCDB3046F7E7BF
:1024E000734801780BE03E4800EB0110C06820B152
:1024F000481C6F4A107008467047481CC1B2082932
:10250000F1DB00210BE0364800EB0110C06820B180
:10251000481C674A10700846EEE7481CC1B2644880
:1025200000788142EFDBFF20E6E710B500242D485C
:10253000408980BBFFF7D4FF0446FF2C27D02849F1
:1025400001EB0410FFF71AFD88B9254800EB0410D1
:102550008079642805DA224800EB04108079401C59
:1025600000E064201E4901EB0411887104E00020A2
:102570001B4901EB04118871194800EB04108079A4
:10258000052804DB0320164901EB041188704FF481
:10259000967014494881012010BD024608210AE0C6
:1025A000481E00EB8000174B03EBC000406800B1F1
:1025B00003E0481EC1B20029F2DC00BF51B1481E41
:1025C00000EB80000F4B03EBC0004068904201D944
:1025D000012070470020FCE710B5FFF7A6FF10BDF3
:1025E000D4330010CC450010546865206C657665C6
:1025F0006C203D202564203E202564286D617829CB
:10260000200D0A0054340010546865206C6576650E
:102610006C203D2025642075736561626C654E7584
:102620006D203D2069732030200D0A0053656C65D4
:1026300063742D2D6C6576656C203D2025642061CA
:102640006464723D20256420726573203D25640D0D
:102650000A000000506179436F756E74203D20259B
:10266000642C686F707065725B25645D2D3E6C61D3
:102670007374436F756E74203D25642C6368616EBE
:10268000676564436F756E74203D25640D0A000014
:10269000436F696E206C6576656C5B25645D2E709A
:1026A0006179436F756E74203D202564200D0A000A
:1026B0000A00001010B505F054FF10BDFEB5064627
:1026C00000200090019002900024304609F0B6FAF4
:1026D000C7B20025B2E0705D2D38292870D2DFE83E
:1026E00000F0898D9E151A1F24292E33383D429EF5
:1026F0009E9E9E9E9E9E474C519E565B9E60659EF2
:102700009E6A9E9E84709E757A9E7F00F848807DAA
:102710000DF8040088E0F64840780DF8040083E0E6
:10272000F34880780DF804007EE0F148C0780DF899
:10273000040079E0EE4800790DF8040074E0EC48FC
:1027400040790DF804006FE0E94880790DF8040045
:102750006AE0E748C0790DF8040065E0E448007AD3
:102760000DF8040060E0E248407A0DF804005BE0F8
:10277000DF48807A0DF8040056E0DD48C07A0DF895
:10278000040051E0DA48007B0DF804004CE0D84822
:10279000407B0DF8040047E0D548807B0DF804002D
:1027A00042E0D348C07B0DF804003DE0D048007CF7
:1027B0000DF8040038E0CE48407C0DF8040033E00A
:1027C0002DE0CB48807C0DF804002DE0C848C07C8B
:1027D0000DF8040028E0C648007D0DF8040023E051
:1027E000C348407D0DF804001EE0C148807D0DF80F
:1027F000040019E040200DF8040015E034B99DF8FC
:10280000000040F080008DF8000007E0601E1DF819
:10281000000040F08001601E0DF8001004E0B44894
:10282000C07D0DF8040000BF00BF705D2E2801D1EF
:10283000204600E0601CC4B2681CC5B2BD42FFF671
:102840004AAF9DF803309DF802209DF801109DF8D5
:10285000000005F09AFAFEBD10B5A6A0FFF72EFF06
:1028600010BD2DE9F04107468846154642F210702A
:10287000844215D3B4FBF0F086B20021304604F058
:102880006BFEC82008F0E6F942F21070B4FBF0F1DC
:1028900000FB1146E81CC1B2304604F05DFE03E0C7
:1028A000A0B2294604F058FEBDE8F0812DE9F84FAA
:1028B00004460D46002000900027264600BF012D4B
:1028C00014D10A2C5CD20A20B4FBF0F100FB1140B9
:1028D000874911F800900846007840F080024B4686
:1028E0000021084605F051FABDE8F88F022D18D1F5
:1028F000642C45D20A20B4FBF0F100FB11407C4966
:1029000011F800900A20B4FBF0F011F800A008467E
:10291000007840F080014B465246002005F035FA21
:10292000E2E7032D23D1B4F57A7F29D20A20B4FB44
:10293000F0F100FB11406E4911F800906420B4FBE7
:10294000F0F100FB11400A21B0FBF1F0684911F8E9
:1029500000A06420B4FBF0F011F800B0097841F059
:1029600080004B465246594605F00FFABCE73CB989
:102970005F48037800221146104605F006FAB3E7D7
:102980000FE00A20B6FBF0F100FB1168584810F880
:1029900008203846791CCFB20DF800200A20B6FB7B
:1029A000F0F60EB1042FECDB012D04D0022D09D07E
:1029B000032D15D10DE09DF8010040F080008DF849
:1029C00001000EE09DF8020040F080008DF802004A
:1029D00007E09DF8030040F080008DF8030000E060
:1029E00000BF00BF9DF800309DF801209DF8021047
:1029F0009DF8030005F0C9F900BF75E72DE9F04720
:102A000088B007468846002400252021684609F042
:102A1000D5F93E4600BF0EE00A20B6FBF0F100FB00
:102A20001169B6FBF0F6324810F809202846691CF7
:102A3000CDB20DF80020002EEED100222846691CF0
:102A4000CDB20DF800202846691CCDB20DF800204B
:102A50002846691CCDB20DF80020B8F1010F06D050
:102A6000B8F1020F0AD0B8F1030F15D10DE09DF8AF
:102A7000010040F080008DF801000EE09DF802009A
:102A800040F080008DF8020007E09DF8030040F060
:102A900080008DF8030000E000BF00BF2C4617E067
:102AA000A4F1040C1DF80C30A4F1030C1DF80C204B
:102AB000A4F1020C1DF80C10A4F1010C1DF80C007F
:102AC00005F063F94FF4967006F0F2FA601EC4B296
:102AD000042CE5DA08B0BDE8F08710B5044642F2F0
:102AE000107084420AD300212046FFF787FF09E0D7
:102AF00030D700002C2C2C30000000000021204694
:102B0000FFF7D4FE10BD10B504461CB10520FFF739
:102B1000E4FF02E00020FFF7E0FF10BD10B504461F
:102B2000032C1AD004DC012C07D0022C26D10CE097
:102B3000042C1AD0632C21D11FE0FE4A917D107B1A
:102B400040231A4605F021F919E0FA4A517CD07A5F
:102B500040231A4605F019F911E0F64A917CD07B22
:102B600040231A4605F011F909E0F24A517C107B26
:102B700040231A4605F009F901E000E000BF00BF5C
:102B800010BD2DE9F04F89B080468946002400250C
:102B9000202101A809F012F9A346464600BF0EE025
:102BA0000A20B6FBF0F100FB116AB6FBF0F6E14833
:102BB00010F80A202846691CCDB201A90A54002E3B
:102BC000EED100222846691CCDB201A90A5428463C
:102BD000691CCDB201A90A542846691CCDB201A9CD
:102BE0000A54B9F1010F06D0B9F1020F0AD0B9F1B8
:102BF000030F15D10DE09DF8050040F080008DF821
:102C000005000EE09DF8060040F080008DF80600FB
:102C100007E09DF8070040F080008DF8070000E015
:102C200000BF00BF2C4618E0A4F1040C0DF1040E07
:102C30001EF80C30A4F1030C1EF80C20A4F1020CB9
:102C40001EF80C10A4F1010C1EF80C0005F09DF804
:102C5000FA2006F02DFA601EC4B2042CE4DA042433
:102C6000B5E0FDF7B5FB074638463C2F3ED03E2881
:102C700004D0432872D0452871D171E0AC4216DAF5
:102C8000601CC4B2A4F1040C0DF1040E1EF80C304B
:102C9000A4F1030C1EF80C20A4F1020C1EF80C1079
:102CA000A4F1010C1EF80C0005F06FF81DE00023E4
:102CB0001A461946184605F068F84FF4967006F063
:102CC000F7F9A4F1040C0DF1040E1EF80C30A4F178
:102CD000030C1EF80C20A4F1020C1EF80C10A4F139
:102CE000010C1EF80C0005F050F866E0042C16DD0F
:102CF000601EC4B2A4F1040C0DF1040E1EF80C30D9
:102D0000A4F1030C1EF80C20A4F1020C1EF80C1008
:102D1000A4F1010C1EF80C0005F037F81DE00023AB
:102D20001A461946184605F030F84FF4967006F02A
:102D3000BFF9A4F1040C0DF1040E1EF80C30A4F13F
:102D4000030C1EF80C20A4F1020C1EF80C10A4F1C8
:102D5000010C1EF80C0005F018F82EE01FE02BE027
:102D600000231A461946184605F00FF84FF49670DE
:102D700006F09EF9A4F1040C0DF1040E1EF80C30BF
:102D8000A4F1030C1EF80C20A4F1020C1EF80C1088
:102D9000A4F1010C1EF80C0004F0F7FF0DE0002375
:102DA0001A461946184604F0F0FF4FF4FA7006F080
:102DB0007FF94FF0010B00E000BF00BFBBF1010F36
:102DC00002D109B0BDE8F08F322006F071F948E772
:102DD00070B505462846FEF7C5FF044642F210705E
:102DE000844205D3544801792046FFF707FE04E0EA
:102DF000514801792046FFF759FD70BD0FB400B569
:102E000091B04021684608F0D9FF4021684608F09B
:102E1000D5FF13A810906846109A129908F0FCFE8E
:102E2000002010906846FFF749FC11B05DF814FBD4
:102E3000021DD0B2414A126C012383401A433F4B1A
:102E40001A6439B91A46926D012383401A433B4BE9
:102E50009A6506E0394AD36D012282401343374A0E
:102E6000D365704700B536480078002849D1354809
:102E70000078012826D10020324908703248807835
:102E8000012802D03048807818B900210120FFF7CE
:102E9000CFFF2D48807C012802D02B48807C18B9B8
:102EA00000210220FFF7C4FF274890F822000128E4
:102EB00003D0254890F8220000BB00210320FFF733
:102EC000B7FF1BE001201F4908701F4880780128C8
:102ED00003D101210846FFF7ABFF1B48807C012886
:102EE00003D101210220FFF7A3FF174890F8220029
:102EF000012803D101210320FFF79AFF5020104938
:102F000008701248007800286AD11148007801281A
:102F10003AD100200E4908700B488078022803D06F
:102F200009488078032803D100210120FFF780FFA2
:102F300005480FE030D700000831001000C009201C
:102F40000B0000100D000010D43300100C00001016
:102F50000E000010807C022803D02D48807C0328BE
:102F600003D100210220FFF763FF294890F82200D7
:102F7000022804D0264890F8220003282DD10021F1
:102F80000320FFF755FF28E0012022490870204860
:102F90008078022803D01E488078032803D10121BD
:102FA0000846FFF745FF1A48807C022803D01848DE
:102FB000807C032803D101210220FFF739FF144848
:102FC00090F82200022804D0114890F8220003282B
:102FD00003D101210320FFF72BFF14200E490870B5
:102FE0000E480078002803DD0C480078401E00E001
:102FF00000200A49087008480078002803DD0648C8
:103000000078401E00E000200349087000BD000069
:10301000D43300100E0000100C0000100B00001044
:1030200010B51421F94808F03EFBF9490860142155
:10303000F84808F038FBF849086010BD70B5044640
:10304000F6480078C0EBC000F54901F83040F3487D
:103050000078C0EBC0000A4602EBC001EC480068F3
:1030600008F046FC0546ED480078401C142190FB12
:10307000F1F201FB1200E94908700DB9012070BDA1
:103080000020FCE770B50446E6480078C0EBC000BD
:10309000E54901F83040E3480078C0EBC0000A463B
:1030A00002EBC001DC48006808F022FC0546DD4860
:1030B0000078401C142190FBF1F201FB1200D94969
:1030C00008700DB9012070BD0020FCE770B5044602
:1030D0000D46D2480078C0EBC000D14901EBC000DA
:1030E0004470CE480078C0EBC00001EBC000857092
:1030F0000220FFF7A3FF70BD70B5044600250CB990
:10310000002070BD607800F0010010B1A078FEF7DB
:1031100005FC607800F0020010B1A078FEF714FC06
:10312000607800F0040010B1A078FEF703FC284698
:10313000E7E7BA480078C0EBC000B94901EBC0002E
:10314000704710B50446B5480078C0EBC000B449DC
:1031500001EBC00004610320FFF770FF10BD70B5E4
:1031600004460D46AD480078C0EBC000AC4901EB09
:10317000C000C460A9480078C0EBC00001EBC000EB
:1031800085600320FFF75AFF70BD2DE9FF5F0446FD
:103190004FF000080027BB460020009001900290ED
:1031A0000390002614B904B0BDE8F09F2279E178BD
:1031B0009EA003F0FFFC0020FEF7B0FB0020FEF70E
:1031C000C3FB0020FEF7B6FB002700200090019013
:1031D00002900390E078002825DDE078401E00EBA7
:1031E000400101EBC0019B4800EB81063068D0B183
:1031F000E0683168B0FBF1F000F0FF0A002510E054
:10320000301D405D00FB0AF16A462846FFF762F870
:10321000814606F10C0050F8251009FB0177681C67
:10322000C5B2082DECDB2079002825DD2079401E71
:1032300000EB400101EBC001874800EB81063068DC
:10324000D0B1A0683168B0FBF1F000F0FF0A0025B2
:1032500010E0301D405D00FB0AF16A462846FFF78A
:1032600039F8814606F10C0050F8250009FB00777B
:10327000681CC5B2082DECDBD4E9021008442169B2
:1032800000EB0108B84505D9A8EB07006946FFF730
:10329000E8F807443A46414670A003F08BFC5946D3
:1032A00078A003F087FC5F490978C1EBC1015E4A51
:1032B00002EBC101E068C8605A490978C1EBC1015D
:1032C00002EBC101A068886056490978C1EBC101D1
:1032D00002EBC1012069086152480078C0EBC000D0
:1032E000114601EBC00087616DA003F063FC00256F
:1032F00013E03DF8152029466AA003F05BFC3DF879
:10330000151048480078C0EBC000474A02EBC000E7
:10331000243020F81510681CC5B2082DE9DB60A028
:1033200003F048FCB8450BD9A8EB070B3D480078E3
:10333000C0EBC0003C4901EBC000C0F820B008E081
:10334000002038490978C1EBC101374A02EBC101BD
:103350000862E06808B9A06868B1D4E90221881859
:10336000FEF71AFB8346594646A003F023FC584655
:10337000FEF72EFB8346206910B100204D490861FD
:103380000320FFF77FFE0EE770B504460D46234885
:103390000078C0EBC000224901EBC00044711F4817
:1033A0000078C0EBC00001EBC00085860420FFF769
:1033B00045FE70BD70B504460025A18E6079FEF70C
:1033C0000BFF054617480078C0EBC000164901EB1B
:1033D000C00085610420FFF755FE70BD38B56A4610
:1033E00002210B48006808F01BFA04469DF8000013
:1033F00058B9217830A003F0DDFB2078022868D08E
:1034000003286AD0042871D16BE071E014360010F3
:103410001000001064360010140000101800001096
:10342000B436001019000010143B00104445565FDC
:103430007061796F75745270743A625F7261746909
:103440006F3D25642C635F726174696F3D25640D67
:103450000A00000014310010743200104445565F19
:103460007061796F75745270743A616D6F756E74B6
:103470003D25642C6368616E6765643D25640D0AB3
:10348000000000004445565F7061796F757452709A
:10349000743A72656D61696E3D25640D0A00000025
:1034A0000D0A000068705B25645D203D2025640DD9
:1034B0000A000000144400104445565F72657150C4
:1034C0006F6C6C3A747970653D25640D0A000000DC
:1034D000FFE72046FFF710FE09E02046FFF755FE04
:1034E00005E02046FFF766FF01E0FFE700BF00BFF1
:1034F00038BD38B500246A460221F648006808F055
:103500008FF904469DF8000008B9204638BD002018
:10351000FCE7F8B504460D4600260A20B5FBF0F09E
:10352000401CED49088218E06A463221E9480068EB
:1035300008F076F9064622469DF80010E7A003F051
:1035400039FB9DF8000040B93078A04205D12146F2
:10355000E9A003F02FFB3046F8BDDF48008A0028C1
:10356000E2D100BFF8E730B5002050E000EB4003A7
:1035700003EBC004E64B53F82430002B45D0002267
:1035800000211FE000EB400303EBC004E04B03EB22
:1035900084030C33A3B100EB400303EBC004DC4B0A
:1035A00003EB84030C3353F8214000EB400303EB9F
:1035B000C005D74B03EB85031B1D5B5C04FB03229B
:1035C0004B1CD9B20829DDDB00EB400303EBC00440
:1035D000CF4B53F82430934217D0002400EB400324
:1035E00003EBC005CA4B43F8254000210BE0002443
:1035F00000EB400303EBC005C54B03EB85031B1D2C
:103600005C544B1CD9B20829F1DB431CD8B2082802
:10361000ACDB002050E000EB400303EBC004BD4BEB
:1036200053F82430002B45D0002200211FE000EB8E
:10363000400303EBC004B74B03EB84030C33A3B18B
:1036400000EB400303EBC004B24B03EB84030C33E9
:1036500053F8214000EB400303EBC005AD4B03EBF7
:1036600085031B1D5B5C04FB03224B1CD9B208299C
:10367000DDDB00EB400303EBC004A64B53F8243022
:10368000934217D0002400EB400303EBC005A14B8D
:1036900043F8254000210BE0002400EB400303EB3E
:1036A000C0059C4B03EB85031B1D5C544B1CD9B21E
:1036B0000829F1DB431CD8B20828ACDB30BD70B55B
:1036C000002420E004EB8400934901EBC000406833
:1036D000B8B9601E00EB800001EBC00021464268D3
:1036E0008EA003F067FA002C0ADD601E00EB80005C
:1036F000894901EBC00040688E4908608E4804701B
:1037000003E0601CC4B2082CDCDB00BF002427E00F
:10371000002521E005EB85007F4901EBC0004168F1
:1037200004EB440000EBC402794800EB82000C304B
:1037300040F8251005EB8500774901EBC000416892
:1037400004EB440000EBC402724800EB82000C3032
:1037500040F82510681CC5B2082DDBDB601CC4B224
:10376000082CD5DBFFF7FFFE70BD70B5FEF7C7F87C
:103770000646012E11D171A0FEF7A0FF64480C3857
:10378000817870A003F016FA61490C39887801F04D
:10379000D5FF77A0FEF792FF12E0032E10D167A0AD
:1037A000FEF78CFF5A480C38817873A003F002FAB8
:1037B00057490C39887802F088F86DA0FEF77EFF33
:1037C000642005F075FCFEF79FF80646012E34D103
:1037D00074A0FFF713FBFEF73CFC4FF4FA7005F002
:1037E00067FC002425E0714800EB0410C068F0B1CC
:1037F000611C6FA0FFF702FB6C4901EB0410FEF7A0
:10380000BDFB0546012D09D10122611C6AA0FFF70D
:10381000F5FA4FF4FA7005F04BFC08E00022611C49
:1038200065A0FFF7EBFA4FF4FA7005F041FC601C5D
:10383000C4B2082CD7DBFFF742FF642005F038FC48
:10384000FEF754F80646022E32D15D48007840F06B
:1038500001005B4908700846408840F0010048803C
:1038600058A0FFF7CBFA002416E000F0C0FD054693
:10387000012D0BD15248007820F00100504908700A
:103880000020488051A0FFF7B9FA07E04FF4FA7022
:1038900005F00EFC601CC4B2032CE6DB00BF032C59
:1038A00006DB4CA0FFF7AAFA4FF47A7005F000FC93
:1038B000FEF72EF802280CD11421484808F07EFAB1
:1038C00040204649488100BF40F2DC50024908834D
:1038D00000BF70BD14000010CC4500104445565F79
:1038E0006D73675270743A6572723D25642C7479F9
:1038F00070653D25640D0A004445565F6D7367523F
:1039000070743A747970653D25640D0A00000000FA
:1039100014310010743200105434001048505F6DA0
:10392000696E206E6F3D25642C63683D25640D0A29
:10393000000000001C00001020000010434F2D2D3F
:1039400000000000434F494E5F4143434550544FF0
:10395000525F50504C5553453A696E69743A6869E4
:10396000676874456E61626C653D25640D0A0000F0
:10397000434F2D3100000000434F494E5F41434308
:103980004550544F525F53504C5553453A696E69F8
:10399000743A6869676874456E61626C653D256458
:1039A0000D0A000048502D2D00000000D4330010F7
:1039B000485025642D00000048502564256400000F
:1039C000983F0010424C2D2D00000000424C2D313C
:1039D00000000000424C2D30000000001444001094
:1039E00000BFFFF71DFB00210120FFF721FA002196
:1039F0000220FFF71DFA00210320FFF719FAFFF755
:103A0000B4FE0120FFF73EFB1FE0FDF76FFF044609
:103A1000022C01D100F061FDFDF771FF0446022C7C
:103A200001D101F09AF9FDF76FFF0446012C01D195
:103A3000FEF7D2FDFDF76CFF022801D102F02DFE4A
:103A4000FFF7CCFC502005F033FBDEE7F8B5054668
:103A50000E4617462421FE4808F0B0F9FD48FC4BFD
:103A60003A4631460090284605F050FB0446012CAA
:103A700000D1F8BD0CB90020FBE70220F9E710B532
:103A8000002211463020FFF7E1FF0446204610BD1A
:103A9000F8B50446002211463120FFF7D7FF06464D
:103AA000012E01D03046F8BDE94800782070E84882
:103AB0004178807861F31F20A080E548C1780079C3
:103AC00061F31F20A060E2484079A0816421A068D2
:103AD00048432061002506E00A212069B0FBF1F08F
:103AE0002061681CC5B2A089A842F5DCD84881795C
:103AF000C07961F31F20A082D548017A407A61F332
:103B00001F20E082D248807A08B1012000E0002026
:103B10006070002523E005F10B00CD49085CFF280B
:103B200005D1002104F1180040F8251009E005F145
:103B30000B00C749085C2169484304F1180141F8AA
:103B4000250004F1180050F8253005F10B00C0499C
:103B50000A5C2946C0A003F02DF8681CC5B2102DE0
:103B6000D9DB20690090A3892178BFA0A26803F067
:103B700021F8012097E7F0B585B005461421684685
:103B800008F01CF9002404222146641C0DF80120D1
:103B90002A0A2146641C0DF80120EAB22146641C61
:103BA0000DF80120002612E00120B040284030B17D
:103BB00003222046611CCCB20DF8002005E0002253
:103BC0002046611CCCB20DF80020701CC6B2102E2D
:103BD000EADB132269463720FFF738FF07463846ED
:103BE00005B0F0BD2DE9F041044600206080207052
:103BF000A080002211463320FFF728FF8046B8F14D
:103C0000010F02D04046BDE8F0819248007808B923
:103C10000120F8E7002787E03846791CCFB28C49AD
:103C20000E5C06F08000F8B1C6F3021515B902204B
:103C3000A08079E0012D05D10120A08006F00F00C1
:103C4000607071E0022D02D10420A0806CE0042D90
:103C500002D10820A08067E0032D02D11020A080AF
:103C600062E00020A0805FE006F02000E8B106F0EE
:103C70000F05062D04D0082D07D0092D13D109E01A
:103C8000608840F4807060800EE0608840F008003A
:103C9000608009E0322005F00BFA8049B1F8880015
:103CA000FFF769FF00E000BF3EE006F00F050D2DB5
:103CB00038D2DFE805F037070C11161B2025262B1C
:103CC00030313200608840F4807060802BE0608882
:103CD00040F00200608026E0207840F0080020706C
:103CE00021E0608840F0080060801CE0608840F0BF
:103CF0002000608017E0207840F01000207012E073
:103D000011E0608840F0400060800CE0207840F0D6
:103D10000200207007E006E005E0608840F40070D3
:103D2000608000E000BF00BF4A4800788742FFF68D
:103D300073AF012067E7F8B5064659A00068009008
:103D4000012E21D100241DE05448243050F82400D5
:103D500038B19DF801000121A1400843C0B28DF89F
:103D600001004E48243004F1080150F8210038B118
:103D70009DF800000121A1400843C0B28DF8000069
:103D8000601CC4B2082CDFDB00241DE0042269465D
:103D90003420FFF75BFE0546012D10D1012E06D120
:103DA0003E48007820F002003C49087005E03B489E
:103DB000007840F00200394908700120F8BD9620D3
:103DC00005F076F9601CC4B2032CDFDB012D01D1B4
:103DD0000120F3E70020F1E738B50120009001222F
:103DE00069463520FFF732FE0446012C00D138BD6C
:103DF0000020FCE738B500200090012269463520FC
:103E0000FFF724FE0446012C00D138BD0020FCE75A
:103E1000F8B50446002000900025012269463720AD
:103E2000FFF714FE0746012F01D03846F8BD28469B
:103E3000691CCDB20649085C20702846691CCDB2C9
:103E40000349085C60702846691CCDB2004929E02E
:103E5000743F00102200001063685B25645D3D25FF
:103E6000642C25640D0A000062696C6C2D73657406
:103E700075703A6C6576656C203D2025642C736303
:103E8000616C653D25642C646563696D616C3D25DD
:103E9000642C7261746F3D25640D0A00983F001018
:103EA0000000FFFF085CA0702146FCA002F082FE2B
:103EB000002608E02846691CCDB2FE49095CE01CDA
:103EC0008155701CC6B20C2EF4DBE11CFAA002F086
:103ED00071FE002609E02846691CCDB2F549095C4F
:103EE00004F10F008155701CC6B20C2EF3DB04F1F7
:103EF0000F01F6A002F05EFE2846691CCDB2ED4926
:103F0000085CE0762846691CCDB2EA49095C217755
:103F100001208BE71CB5F3A103C9CDE900010522FF
:103F200069463720FFF792FD0446012C01D0204658
:103F30001CBD0120FCE7F8B50446022000900025D6
:103F4000012269463720FFF781FD0746012F01D086
:103F50003846F8BD2846691CCDB2D649085C2070A9
:103F60002846691CCDB2D349085C60702846691C9C
:103F7000CDB2D049085CA070002608E02846691C34
:103F8000CDB2CC49095CE01C8155701CC6B20C2E28
:103F9000F4DB002609E02846691CCDB2C549095C5E
:103FA00004F10F008155701CC6B20C2EF3DB2846BD
:103FB000691CCDB2BF49085CE0762846691CCDB2C9
:103FC000BC49095C2177BB48405D0106B94A681CC1
:103FD000105C41EA0041A81C105C41EA0020E91C89
:103FE000515C084320622146ACA002F0E3FDE11CD5
:103FF000B1A002F0DFFD04F10F01B4A002F0DAFD80
:10400000BAA0216A02F0D6FD0120A2E7F8B5054664
:10401000032000900027012269463720FFF716FD94
:104020000646012E01D03046F8BDA248C15D0246C9
:10403000781C105C61F31F202880002413E028887E
:104040000121A140084038B1B14850F8241005F1D1
:10405000480040F8241004E0002105F1480040F831
:104060002410601CC4B2102CE9DB2988A9A002F03E
:10407000A1FD0120D8E7F8B50546002000900520F5
:104080008DF80000012269463720FFF7DFFC064665
:10409000012E01D03046F8BD86480178407861F3A2
:1040A0001F20A88000219A4824388160002424E041
:1040B000022000EB44007F49095C022000EB440031
:1040C000401C7C4A105C61F31F20A91D21F81400DC
:1040D000A81D30F8140000280DDD8D4824388168B3
:1040E000A81D30F81420423050F8240002FB0011C3
:1040F000874824388160601CC4B2102CD8DB0120B2
:10410000C9E72DE9FC4106460D46002000900190CC
:10411000002406222146641C0DF801202146641C5F
:104120000DF801602A0A2146641C0DF80120EAB24C
:104130002146641C0DF80120042269463720FFF750
:1041400085FC0746012F02D03846BDE8FC810120DE
:10415000FBE77CB504460020009001900025072273
:1041600029466D1C0DF80120220A29466D1C0DF808
:104170000120E2B229466D1C0DF801200322694698
:104180003720FFF763FC064630467CBD2DE9FC4135
:104190000020009001900024002708208DF80000E6
:1041A000012269463720FFF751FC8046B8F1010F24
:1041B00017D1002512E03F48015D0246601C165CE5
:1041C00061F31F26A01CC4B2002E05DD5048AC30A0
:1041D00050F8250006FB0077681CC5B2102DEADBFD
:1041E00000E000273846BDE8FC817CB5044600208D
:1041F0000090019009208DF80000012269463720C7
:10420000FFF724FC0546012D01D028467CBD484817
:10421000007810B90120207001E0002020700120FA
:10422000F4E72DE9F843074688460026B146002505
:1042300009E041463846FFF764FF0446012C00D1EF
:1042400003E0681CC5B2032DF3DB00BF012C02D0D4
:104250000020BDE8F88379E03648FFF7C3FC044648
:104260000CB9701C00E00020C6B20A2E01DD00204F
:10427000EFE7642004F01CFF6846FFF7B6FF044632
:10428000012C60D19DF8000001285CD1642004F06D
:104290000FFFFFF77BFF814664204DE062696C6C85
:1042A0002D69643A6D616E436F6465203D2025730E
:1042B0000D0A0000743F001062696C6C2D69643A4D
:1042C000736E203D2025730D0A00000062696C6C3E
:1042D0002D69643A6D6F64656C203D2025730D0A6D
:1042E00000000000010000000200000062696C6C28
:1042F0005F6578705F6C6576656C325F69643A669D
:10430000656174757265203D2025780D0A000000F6
:10431000BC3F001072656379636C65725F7365748E
:1043200075703A726F75743D25780D0A00000000B3
:10433000220000102400001004F0BAFED348FFF75A
:104340009AFE484685E7642004F0B2FE84E72DE932
:10435000F84305460027B846CC488838C06910B9EC
:104360000020BDE8F883C9488838C069B5FBF0F57E
:10437000002608E0A8B2FFF7ECFE0446012C00D1AD
:1043800003E0701CC6B2032EF4DB00BF012C01D089
:104390000020E6E72AE0BE48FFF724FC04460CB9FB
:1043A000781C00E00020C7B20A2F01DD0020D8E70A
:1043B000642004F07DFE6846FFF717FF0446012CD9
:1043C00011D19DF8000001280DD1642004F070FE89
:1043D000FFF7DCFE8046642004F06AFEAB48FFF77E
:1043E0004AFE4046BDE7642004F062FED3E770B5A4
:1043F000FFF745FB0546012D01D0284670BD00247E
:104400000DE0642004F054FEA148FFF7EBFBA04848
:10441000007800F0100000B103E0601CC4B2322C40
:10442000EFDB00BF322C01DB0020E7E7642004F063
:104430003FFE96487C38FFF72BFB642004F038FEE3
:1044400092488838007B02282ED1FFF763FD642054
:1044500004F02EFE8D482438FFF76DFD8B48883818
:1044600090F8840000F00200C8B101218748883824
:104470008173642004F01CFE8448FFF7C7FD6420AC
:1044800004F016FE81498839B1F88800FFF773FB04
:10449000642004F00DFE7D48FFF7EDFD0BE00021E8
:1044A0007A488838817306E000217848883881731B
:1044B0006430FFF7ADFC75488838817B75A002F049
:1044C00079FB642004F0F4FD0020FFF734FC05467E
:1044D000012D00D192E7002090E770B56B4C883C2D
:1044E000207800F00100C8B1A07800F00100A8B168
:1044F0006C48008800280BD1FFF779FF0546012D95
:1045000007D1002020706080207840F002002070E9
:10451000B9E04FF47A7063490880B4E05C48FFF773
:1045200061FB05464DB960480078052801DB052090
:1045300004E05D480078401C00E000205A49087003
:10454000012D30D15248007800F0020088B1504867
:104550004088D0B14D48883840884D494988084343
:104560004A49883948800846007840F001000870C0
:104570000BE04748408840B90020444988394880CA
:104580000846007820F0010008704148808858B93A
:104590004448808800286AD144480078012866D1C0
:1045A00000204249087062E039488088012813D110
:1045B000642004F07DFDFFF70FFC012806D13B4984
:1045C000087040F61C403749888050E0642004F0B1
:1045D0006FFDFFF70FFC4AE02D488088042803D1C7
:1045E00000203249087042E02948808802281AD108
:1045F0002E48007801283AD100202C49087024491F
:104600004878C11700EB11710911A0EB0111CEB26E
:104610001E4888384168243050F8260008441B4959
:104620008839486023E01A48808810281FD11F4825
:10463000007801281BD100201C49087014494878D3
:10464000C11700EB11710911A0EB0111CEB20F4897
:1046500088384168243050F8260008440B498839CE
:104660004860642004F024FD0848FFF704FD0E486C
:104670000078052807DB207840F001002070608872
:1046800040F001006080002070BD0000204000105C
:1046900024000010497352656379636C65723D258F
:1046A000640D0A00CC4500102B0000102A000010F9
:1046B000F8B505460E4617462421FA4807F07EFB5A
:1046C000F948F84B3A4631460090284604F01EFD62
:1046D0000446012C00D1F8BD0CB90020FBE70220F4
:1046E000F9E710B5002211460820FFF7E1FF044664
:1046F000204610BD70B50446002211460920FFF780
:10470000D7FF0646012E01D0304670BDE54800783F
:104710006070E4484178807861F31F20E070E148E0
:10472000C078A070DF4800792071A07864214843E8
:10473000A060002506E00A21A068B0FBF1F0A060AF
:10474000681CC5B22079A842F5DCD6484179807949
:1047500061F31F20608400251AE0608C0121A940CC
:10476000084030B1E81DCF49095C04F124004155EF
:1047700003E0002104F12400415504F12400415DCF
:10478000A068414304F1340040F82510681CC5B20C
:10479000102DE2DB0120B8E770B505460022114676
:1047A0000A20FFF785FF0646012E01D0304670BD76
:1047B000BC480178407861F31F2028800021BB4865
:1047C000C0F89C1000241DE0688A0121A140084027
:1047D00028B1A01CB349095CA81C015502E00021C6
:1047E000A81C0155B148D0F89C10A81C025DAF4828
:1047F000343050F8240002FB0011AC48C0F89C1083
:10480000601CC4B2102CDFDB3046D0E738B5042082
:104810000090012269460F20FFF74AFF0446012C51
:1048200004D1A148007808B9012038BD0020FCE778
:10483000F8B5064603200090012269460F20FFF7D5
:1048400037FF0746012F1BD197480078002817DD56
:10485000002500240FE09548408C0121A14008402C
:1048600038B19048015D9148343050F8240001FB84
:104870000055601CC4B2102CEDDB35600120F8BD82
:104880000020FCE72DE9F05F044689464FF0000860
:1048900000202080002211460B20FFF709FF8246EE
:1048A000BAF1010F02D05046BDE8F09F7E48007873
:1048B00008B90120F8E7002665E03046711CCEB249
:1048C00078490D5C05F0800030B13046711CCEB2E5
:1048D000744911F800B056E005F04000B8B1304618
:1048E000711CCEB26F4911F800B0C5F301170FB1BA
:1048F000012F48D16D4805F00F02D0F898103430E0
:1049000050F8220008446949C1F898003BE005F0DE
:10491000200000B137E005F00F070E2F31D2DFE89D
:1049200007F030070A0D0E1314151A1F24272A2F1B
:1049300048F0800826E048F0080823E022E02088BC
:1049400040F0020020801DE01CE01BE0208840F0C9
:104950000400208016E0208840F00800208011E04C
:10496000208840F0100020800CE048F0080809E0A2
:1049700048F0100806E0208840F02000208001E088
:1049800000E000BF00BF48480078864295DB89F808
:104990000080012088E7F8B5054645A00068009032
:1049A000012D2FD1002414E04048243004F10801E7
:1049B000405C60B13D482430405CFF2807D09DF842
:1049C00000000121A1400843C0B28DF80000601C26
:1049D000C4B2082CE8DB002412E034482430005D27
:1049E00060B132482430005DFF2807D09DF80100F7
:1049F0000121A1400843C0B28DF80100601CC4B27F
:104A0000082CEADB00241DE0042269460C20FFF795
:104A10004FFE0646012E10D1012D06D12348007B02
:104A200020F002002149087305E02048007B40F097
:104A300002001E4908730120F8BD962004F038FBDF
:104A4000601CC4B2032CDFDB3046F5E72DE9FF47DD
:104A500080460020039000901448806818B9002018
:104A600004B0BDE8F08711488068B8FBF0F087B269
:104A7000642F01DD642000E0F8B2814602208DF849
:104A80000C008DF80D90002516E0642004F010FB5A
:104A9000022203A90F20FFF70BFE0446012C09D1C7
:104AA0000CE00000A84000102C000010CC400010CA
:104AB0000000FFFF681CC5B2032DE6DB00BF012C20
:104AC00001D00020CCE729E0642004F0F1FA02A92B
:104AD00001A8FFF7D7FE04460CB9701C00E00020C7
:104AE00086B20A2E01DD0020BAE7642004F0E0FA65
:104AF000FFF78CFE0446012C10D1642004F0D8FA94
:104B00006846FFF795FE0446012C07D1642004F0A7
:104B1000CFFADB48FFF740FE0098A1E7D4E72DE984
:104B2000F041044600250027002614B90020BDE806
:104B3000F0812746002510E03846FFF787FF06463C
:104B400035440EB92846F2E7AC4204D9671B64200D
:104B500004F0AEFA01E02846E9E7EDE72DE9F84375
:104B600004460D4605200090002020802870012278
:104B700069460F20FFF79CFD8146B9F1010F3ED138
:104B8000C0480078022802DA0120BDE8F8834FF01F
:104B900000082EE04046411C01F0FF08BA490E5CB7
:104BA0004046411C01F0FF08B7490F5C032E03D1BA
:104BB000287840F040002870052E00DC19E0062E11
:104BC00004D1287840F00200287012E0112E02D1A2
:104BD000102F0ED10DE0152E07D1022F05D1208800
:104BE00040F0400020800120CFE7208840F40040C2
:104BF0002080A44800788045CCDB0120C5E74846EA
:104C0000C3E7F8B50546002000900026012269465A
:104C10000F20FFF74DFD0746012F01D03846F8BDA4
:104C20003046711CCEB29849085C28703046711C21
:104C3000CEB29549085C68703046711CCEB292497C
:104C4000085CA870002408E03046711CCEB28E4982
:104C5000095CE81C0155601CC4B20C2CF4DB002478
:104C600009E03046711CCEB28749095C05F10F009E
:104C70000155601CC4B20C2CF3DB3046711CCEB263
:104C80008149085CE8763046711CCEB27E49095CE9
:104C90002977002409E03046711CCEB27A49095CBC
:104CA00005F11D000155601CC4B2042CF3DB01208A
:104CB000B5E71CB575A103C9CDE900010522694618
:104CC0000F20FFF7F5FC0446012C00D11CBD00208D
:104CD000FCE77CB56A4E103EFFF703FD0546012D4B
:104CE00001D028467CBD00240FE0962004F0E0F9B6
:104CF00001A96846FFF7C6FD05469DF8040000F0CF
:104D0000100000B103E0601CC4B2322CEDDB00BF28
:104D1000322C01DB0020E5E7962004F0C9F9FFF70B
:104D2000C8FF0546962004F0C3F93046FFF7E2FCC1
:104D30000546962004F0BCF906F17400FFF761FF08
:104D40000546962004F0B4F90020FFF724FE05463E
:104D5000012D00D1C6E70020C4E77CB5484C241FD4
:104D6000207800F00100B0B1A07800F0010090B10F
:104D700048484088002808D1FFF7ABFF0546012DC1
:104D800004D1002060800220207077E04FF47A7018
:104D90004049488072E040480078092849D2DFE85D
:104DA00000F00523062407250826430000BF00BFA6
:104DB00000BF01A96846FFF765FD05469DF80400A0
:104DC00000F0800018B1207840F080002070BDF81D
:104DD000000040B16088BDF8001008436080207872
:104DE00040F00100207029E000BF00BF00BF01A912
:104DF0006846FFF7B3FE0546BDF8000040B1608885
:104E0000BDF8001008436080207840F00100207059
:104E10009DF8040000F0400028B1207820F0010047
:104E200020700020608009E01548FFF7B5FC0546BA
:104E300004E0002018490870012500BF00BF4DB9EB
:104E400016480078052801DB052004E013480078A7
:104E5000401C00E000201149087008460078052831
:104E600007DB207840F001002070608840F00100EE
:104E7000608009480078401C0749087000207CBD0C
:104E8000DC4000102C000010A840001001FFFFFFC4
:104E9000FF000000CC4500102D0000102E00001077
:104EA000F8B505460C4616460CB90020F8BD234659
:104EB0002A460221A020009603F01BFDF6E7F8B574
:104EC00005460C4616460CB90020F8BD23462A4676
:104ED0000221A020009603F0CDFCF6E72DE9F04179
:104EE00000244FF40071FA4806F068FF4FF4007296
:104EF000F7490020FFF7E3FF2146641CF448405CBB
:104F0000E52802D00020BDE8F0812046611C8CB26B
:104F1000EF49085CEF4908702046611C8CB2EC49EF
:104F2000085CEC4948702046611C8CB2E849085C7A
:104F3000E8498870002515E0E548005D0106E44A6F
:104F4000601C105C41EA0041A01C105C41EA00209A
:104F5000E11C515C0843E04941F82500201D84B262
:104F6000681CC5B2102DE7DB002516E0D848005DAF
:104F70000106D74A601C105C41EA0041A01C105C8D
:104F800041EA0020E11C515C0843D44901EB0511C2
:104F9000C860201D84B2681CC5B2082DE6DB20461F
:104FA000611C8CB2CA49085CCA490871002528E016
:104FB00005EB450000EBC501C6480C3000EB81074E
:104FC000C348005D0106C24A601C105C41EA004112
:104FD000A01C105C41EA0020E11C515C08433860D1
:104FE000201D84B2002608E02046611C8CB2B8491E
:104FF000095C381D8155701CC6B2082EF4DB681C94
:10500000C5B2082DD4DB002527E005EB450000EBF9
:10501000C501B34800EB8107AD48005D0106AC4A0D
:10502000601C105C41EA0041A01C105C41EA0020B9
:10503000E11C515C08433860201D84B2002608E062
:105040002046611C8CB2A249095C381D8155701C38
:10505000C6B2082EF4DB681CC5B2082DD5DB20468D
:10506000611C8CB29A49085C9A49C8709848005DE6
:105070000106974A601C105C41EA0041A01C105CCC
:1050800041EA0020E11C515C084392498860201DE0
:1050900084B2214693A001F08DFD012033E72DE974
:1050A000F0410024E5222146641C89484254894885
:1050B00002782146641C864842548648427821463C
:1050C000641C83484254834882782146641C80488B
:1050D0004254002526E0804850F82500000E214665
:1050E000621C94B27A4A50547B4850F82500C0F3B1
:1050F00007422046611C8CB275490A54764830F844
:105100002500C0F307222046611C8CB270490A5466
:10511000714810F825202046611C8CB26C490A5455
:10512000681CC5B2102DD6DB00252AE06B4800EBC9
:105130000510C068000E2146621C94B2644A5054A7
:10514000664800EB0510C068C0F307422046611CAA
:105150008CB25F490A54614800EB05108089C0F3A6
:1051600007222046611C8CB259490A545B4800EB67
:105170000510027B2046611C8CB255490A54681CFC
:10518000C5B2082DD2DB534802792046611C8CB28F
:105190004F490A54002533E005EB450000EBC501FB
:1051A0004C480C3000EB81063068000E2146621C32
:1051B00094B2474A50543068C0F307422046611CFD
:1051C0008CB243490A543088C0F307222046611C40
:1051D0008CB23F490A5432782046611C8CB23C495B
:1051E0000A54002708E0301DC25D2046611C8CB2C5
:1051F00037490A54781CC7B2082FF4DB681CC5B2C3
:10520000082DC9DB002532E005EB450000EBC501A8
:10521000334800EB81063068000E2146621C94B2D0
:105220002B4A50543068C0F307422046611C8CB2B0
:1052300027490A543088C0F307222146601C84B2F3
:105240002348425432782046611C8CB220490A54CB
:10525000002708E0301DC25D2046611C8CB21C494D
:105260000A54781CC7B2082FF4DB681CC5B2082D9D
:10527000CADB1848C2782046611C8CB214490A5413
:1052800014488068000E2146621C94B2104A5054A3
:1052900010488068C0F307422046611C8CB20C495C
:1052A0000A540C480089C0F307222046611C8CB2C6
:1052B00007490A540748027A2046611C8CB2044907
:1052C0000A5422460020FFF7EBFD0120BDE8F081E3
:1052D0007041001008310010B0430010D4330010AA
:1052E0007432001052656164466C6173683A736988
:1052F0007A653D25640D0A0038B500244FF400712D
:10530000D84806F05BFD4FF40072D6491046FFF70F
:10531000D6FD2146641CD348405CE52804D0D2A0C9
:1053200001F048FC002038BDCE48005D0106CD4AA2
:10533000601C105C41EA0041A01C105C41EA0020A6
:10534000E11C515C0843D1490860201D84B210461D
:10535000005D0106601C105C41EA0041A01C105C6D
:1053600041EA0020E11C515C0843C8494860201D07
:1053700084B21046005D0106601C105C41EA0041E9
:10538000A01C105C41EA0020E11C515C0843BF49AD
:105390000861201D84B21046005D0106601C105C8F
:1053A00041EA0041A01C105C41EA0020E11C515C74
:1053B0000843B6494861201D84B208460069009040
:1053C0000846436942680168B1A001F0F3FB00257B
:1053D0001DE0A448005D0106A24A601C105C41EA81
:1053E0000041A01C105C41EA0020E11C515C084314
:1053F000A6491C3141F82500201D84B2084650F80A
:1054000025202946ADA001F0D5FB681C85B2082DEA
:10541000DFDB9448005D0106924A601C105C41EAA3
:105420000041A01C105C41EA0020E11C515C0843D3
:1054300096498861201D84B21046005D0106601CFB
:10544000105C41EA0041A01C105C41EA0020E11C14
:10545000515C08438D498860201D84B221469EA07E
:1054600001F0A8FB01205EE770B50024E52221468B
:10547000641C7C48425485480068010E2246641C26
:105480007848815481480068C0F307422146641C73
:10549000744842547D480088C0F307222146641CAA
:1054A00070484254794802782146641C6D48425441
:1054B00076484068010E2246641C6A48815473484D
:1054C0004068C0F307422146641C664842546F4856
:1054D0008088C0F307222146641C624842546B480E
:1054E00002792146641C5F48425468480069010EF5
:1054F0002246641C5B48815464480069C0F307423B
:105500002146641C574842546048008AC0F3072271
:105510002146641C534842545C48027C2146641C6A
:105520005048425459484069010E2246641C4D4877
:10553000815456484069C0F307422146641C4948DB
:1055400042545248808AC0F307222046611C8CB224
:1055500044490A544D48027D2046611C8CB24149A1
:105560000A5400252AE049481C3050F82500000E56
:105570002146621C94B23B4A505444481C3050F8B7
:105580002500C0F307422046611C8CB235490A54FD
:105590003E481C3030F82500C0F307222046611C2D
:1055A0008CB230490A5439481C3010F82520204666
:1055B000611C8CB22B490A54681C85B2082DD2DBC1
:1055C00032488069000E2146621C94B2254A50542C
:1055D0002E488069C0F307422046611C8CB22149E5
:1055E0000A542A48008BC0F307222046611C8CB263
:1055F0001C490A542548027E2046611C8CB2194978
:105600000A5422488068000E2146621C94B2154A52
:1056100050541E488068C0F307422046611C8CB27B
:1056200010490A5419480089C0F307222046611C1A
:105630008CB20C490A541548027A2046611C8CB27F
:1056400008490A5422464FF40070FFF729FC012054
:1056500070BD10B53C210D4806F0B0FBFFF704FF0C
:10566000012010BD70410010464D5F726561644CB1
:105670006F6746726F6D466C6173683A6973206537
:105680006D70747921210D0A000000007043001034
:10569000464C4153483A62526563763D25642C631B
:1056A000526563763D25642C696F753D25642C63D6
:1056B00068616E6765643D25640D0A00466C617320
:1056C000682D68704368616E6765645B25645D3D45
:1056D0002025640D0A000000726561644C6F673A12
:1056E00073697A653D25640D0A0000000246102AA0
:1056F00000DC0AB900207047501EA94B43F8201067
:105700000120F8E7A748006840F0C040A5490860BC
:10571000A5480078012805D10846C06940F0C0407E
:10572000C86105E09F48806940F0C0409D4988619C
:1057300000209B49091F08700120704710B50446DE
:105740009848006A9949084096490862984901209A
:1057500003F08BF994480470FFF7D4FF012010BDCB
:105760009048006840F0C0408E4908608E4800783C
:10577000012805D10846806940F0C040886105E0F5
:105780008848C06940F0C0408649C861012084490A
:10579000091F0870704770B58248406BC0F38025C0
:1057A0008048406BC0F3402045EA40057D48406B8F
:1057B000C0F3002045EA80057A48406BC0F3001032
:1057C00045EAC0057748406BC0F3400045EA001544
:1057D0007448406B00F0010045EA4015E843C6B24A
:1057E00006F03F06042E2FD005DC5EB1012E27D037
:1057F000022E31D126E0082E28D0102E28D0202EBF
:105800002AD127E06B480078012814D1002069498B
:105810000870694802686948017869A001F0CAF90E
:1058200066480078401E5E4951F8200062490968C8
:1058300008446149086000206049087000240DE0B8
:1058400006240BE0052409E0042407E0032405E016
:10585000022403E0012401E0002400BF00BF5548FA
:105860000078A8B955480078002801DD012000E043
:10587000002052490978A14201D1012100E0002114
:10588000084018B101204B49087001E04B480470F2
:1058900070BD4448006840F0C0404249086042483A
:1058A0000078012805D10846C06940F0C040C861B1
:1058B00005E03C48806940F0C0403A4988610020DA
:1058C0003749091F08700120704710B50446354854
:1058D000006C20F40060334908643549012003F06E
:1058E000C4F831480470FFF7D4FF012010BD2D48E3
:1058F000006840F0C0402B4908602B480078012820
:1059000005D10846806940F0C040886105E025481F
:10591000C06940F0C0402349C86101202049091FE7
:10592000087070471F49096C21F400611D4A116419
:105930001146496DC1F3C02010B1012812D10EE00B
:1059400027490978012907D11549091F49681A4AC9
:1059500012681144184A11602149087003E0204977
:10596000087000E000BF00BF704713480068704730
:105970000146114A1268914206D80F4A1268521A1B
:105980000D4B1A60002005E00B4A1268881A0022AD
:10599000094B1A6070470248001F007870470000EA
:1059A000B043001000C0092030000010FCFEF8FFDA
:1059B00000530700390000103400001038000010B8
:1059C0005072654368616E6E656C3D25642072653A
:1059D0006376416D6F756E743D25640D0A0000009D
:1059E0003A00001010B501F074F801F054F901F01C
:1059F000B0FA01F0F8FB01F06FFC02F0E2FEF649AC
:105A0000002003F032F803F0ADFA012003F096FA1B
:105A100002F0A7FDF1A0FCF751FE40F2DC5003F0CC
:105A200047FBF0A0FCF74AFE03F02FFA03F05BFA05
:105A3000EEA0FCF743FE642003F03AFB10BD10B566
:105A40004FF48871EB4806F0B9F9A421EA4806F052
:105A5000B5F94FF43371E94806F0B0F9FFF73EFAB3
:105A6000FFF74AFC0220FBF707FF0220FBF712FFBB
:105A70000120FBF72CFF10BD10B50446FBF798FE84
:105A8000DF49087008460078012806D10021FF2070
:105A9000FDF71CFBFAF79EFE09E0D94800780228C2
:105AA00005D10021FF20FDF711FBFBF78DFDD44848
:105AB000007888B1172C04D10021FF20FDF706FBE8
:105AC00003E00121FF20FDF701FB0020CC49087015
:105AD000FCF784F9012010BD0020FCE72DE9F05F00
