:020000040000FA
:1000000000800010CD000000A1850000A185000047
:10001000A1850000A1850000A1850000A185000048
:10002000A1850000A1850000A18500001D0200003F
:10003000A18500000000000085020000898E0000FC
:10004000A18500009D7C0000717C00005F7C0000A9
:100050004D7C0000F55C0000B95E0000D960000036
:1000600009640000A18500007D780000A1850000E2
:10007000A1850000A1850000A1850000A1850000E8
:10008000A1850000A1850000A1850000A1850000D8
:10009000AB800000A1850000A1850000A1850000C3
:1000A000A1850000A1850000A1850000A1850000B8
:1000B000A1850000A1850000A1850000A1850000A8
:1000C000A1850000A1850000A185000000F002F8D4
:1000D00000F094F80AA090E8000C82448344AAF14E
:1000E0000107DA4501D100F089F8AFF2090EBAE84C
:1000F0000F0013F0010F18BFFB1A43F0010318475C
:1001000088CA0000A8CA0000103A24BF78C878C185
:10011000FAD8520724BF30C830C144BF04680C600D
:10012000704700000023002400250026103A28BF55
:1001300078C1FBD8520728BF30C148BF0B60704759
:100140006E290BF0478170290BF0898266290CF02B
:100150000D8465290CF00A8467290CF00784612955
:10016000AFF3008003681B0A28BF41F080016929B2
:100170000BF0F48064290BF0F18075290BF0EE8010
:100180006F290BF0178278290BF05582E9290BF0C3
:10019000B181E4290BF0AE81F5290BF0AB81EF2999
:1001A0000BF01482F8290BF054820368DB0928BF96
:1001B00041F0800163290BF0F48573290BF0F98578
:1001C000E3290BF00486F3290BF009860020704721
:1001D0001FB59DE803000BF029F80BF081FE040029
:1001E000002000210CF0A8FB401C606000200021D2
:1001F0000CF08CFBE0601FBD10B510BD0BF042FE93
:100200001146FFF7E5FF00F0BCF80BF01BFF03B44D
:10021000FFF7F2FF03BC08F0F3FD0000052828BF3C
:1002200070474FEA80007844D0F802F08502000061
:100230004B020000E902000009030000290300004E
:100240004FF0010080F3148800DF0A4C4FF00105E5
:10025000257077460AF0A4FDBE46074E3668074C67
:100260002660D6F800D001BC05490860BDE8F00F53
:10027000704700BFD7000010E8000010E000001039
:10028000AC0000104FF0080282F3118800B50AF0AC
:1002900087FD5DF804EB2DE9F00F0E49086801B405
:1002A0000D4A1268C2F800D00C4C0D4D2E78267005
:1002B0000C4E3668084C2660D6F800D001BC0860A9
:1002C00000280CBF0022082282F31188BDE8F00F3D
:1002D000704700BFAC000010E0000010CC00001020
:1002E000CD000010E80000100649086800F1010088
:1002F0004FF0080282F31188002808BF7047086099
:10030000704700BFAC0000100649086800281CBFF9
:1003100001380860002818BF70474FF0000282F3D0
:1003200011887047AC0000104FF0000080F3148873
:1003300070474FF0010080F31488704788476FF0D2
:10034000FF0009F0ADFF000086B000BF05F05CF9CA
:1003500005F087F9012000218202184BCDE9013216
:10036000CDE9031005200346154A0090154809F011
:100370003FFF05E005F0C7FB4FF47A7007F0F8FF88
:10038000F8E700B585B008F010F908F0D5F808F0E6
:10039000CAFE01200021C2020B4BCDE90132CDE99A
:1003A000031007200346094A0090AFF2630009F0EA
:1003B0001FFF08F07BFF002005B000BD00210010EA
:1003C000FC3000103336000000010010FC2000104B
:1003D00010B507F0D9FE10BD70B50546284602F0ED
:1003E000E3FB08E0FFF7F4FF0446432C00D170BDA7
:1003F000142007F0BDFFF5E770B50546284602F06A
:1004000058FA08E0FFF7E4FF0446432C00D170BD22
:10041000142007F0ADFFF5E72DE9F041064601276E
:100420004FF000084BE0012F04D100273146F7A020
:1004300002F0D0FBFFF7CCFF0446362C17D008DCC7
:10044000A4F13100052830D2DFE800F00C0D0E0FCA
:100450001000372C0CD0382C0BD0432C12D0452C4C
:1004600023D117E000BF00BF00BF00BF00BF00BF27
:1004700000BFA4F13000C5B22A463146E5A002F023
:10048000A9FB13E0002D01DD002501E04FF001087C
:1004900001270BE0002D07DD691EE14A52F821001B
:1004A000FFF7AAFF0025012700E000BF00BFB8F159
:1004B000010F01D1BDE8F081142007F059FFB2E728
:1004C00070B5002600250121084602F0EDFC3046FB
:1004D00002F06AFB17E0FFF77BFF0446432C06D1CE
:1004E00001F091F90546284601F042F90CE001F0CF
:1004F0008AF90546AE4203D02E46304602F054FB40
:10050000C82007F035FFE6E700BF0021012002F018
:10051000CBFC4FF47A7007F02BFF70BD70B500264E
:1005200000250121022002F0BFFC304602F03CFB16
:1005300017E0FFF74DFF0446432C06D101F06EF99A
:100540000546284601F030F90CE001F067F9054650
:10055000C82007F00DFFAE4203D02E46304602F011
:1005600023FBE6E700BF0021022002F09DFC4FF4D0
:100570007A7007F0FDFE70BD2DE9FC5F07468846E6
:100580004FF0000B002001900024012000904FF05C
:10059000000999E00098012806D100200090224629
:1005A00039469CA002F016FBFFF712FF0646332ED9
:1005B0000CD004DC312E07D0322E19D105E0432EA9
:1005C0000AD0452E14D10FE000BF00BFA6F13000C5
:1005D000C4B2012000900CE00CB1002401E04FF007
:1005E000010B0120009004E00CB10120019000E01B
:1005F00000BF00BF019800285ED0214689A002F00C
:10060000E9FAB8F1010F19D10521204602F07FFD6A
:100610004CF25031042002F0DAFD054675B36869EA
:1006200002F047F94FF47A7007F0A2FE7FA001F0C4
:1006300031FF4FF47A7007F09BFE1FE04FF0000A85
:100640001AE00A21204602F062FD4CF250310420EB
:1006500002F0BDFD054605B90FE0686982445046C9
:1006600002F027F968690A2800D206E0FFF7B0FE19
:100670000646432E00D100E0E3E700BF601E6D494F
:1006800001EB001090F80290B9F1020F02D0B9F11D
:10069000030F04D1214668A002F09CFA03E0214632
:1006A00060A002F097FA4FF47A7007F061FE002420
:1006B0000020019001200090BBF1000F01D0BDE8A7
:1006C000FC9F142007F054FE64E72DE9FC4100264E
:1006D000002700254FF001082D22042101A80AF06F
:1006E00063FC76E0B8F1010F0DD14FF000089DF8E2
:1006F000070000909DF806309DF805209DF8041035
:100700004FA002F067FAFFF763FE04462046342C40
:100710000FD006DC312809D0322808D0332818D170
:1007200006E043280DD0452813D10FE000BF00BFDD
:1007300000BF2846691CCDB201A90C544FF0010836
:1007400007E00DB1002500E0012602E001270025A9
:1007500000BF00BF0EB1BDE8FC81322007F008FEEB
:10076000BFB39DF80400312824D19DF8050032283C
:1007700020D19DF8060033281CD19DF807003428AD
:1007800018D132A001F086FE04F086FD4FF47A7095
:1007900007F0EEFD25A001F07DFE4FF47A7007F022
:1007A000E7FD2CA001F076FE4FF47A7007F0E0FD33
:1007B0000027D0E71DA001F06DFE4FF47A7007F01E
:1007C000D7FD2D22042101A80AF0EEFB4FF001080D
:1007D000002787E72DE9F0410024002600274FF08D
:1007E00001081EA005F046FBE0E0B8F1010F04D1BE
:1007F0004FF000081DA001F04DFEFFF7E9FD054692
:10080000A5F13000162870D234E0000055253032B2
:10081000642E300055253032642E2564000000001F
:100820002C4200104850256430000000232323236D
:1008300000000000C433001048502564450000004B
:10084000256325632563256300000000434C454173
:100850000000000030303030000000004D4E5F7569
:100860007365724D656E750D0A0000005530302EAF
:1008700030000000DFE800F0140B0C0D0E0F10111B
:10088000121339393939393939393931392700BFF2
:1008900000BF00BF00BF00BF00BF00BF00BF00BF60
:1008A000A5F1300004EB840100EB4100C4B2632CDD
:1008B00001DD002000E0204604462146AFF2B400EE
:1008C00002F088F912E03CB10127AFF2A00001F07C
:1008D000E1FDC82007F04CFD08E00CB1002400E069
:1008E00001264FF0010801E0FFE700BF00BF16B18D
:1008F0000020BDE8F081142007F03AFD012F55D10A
:10090000082C34D006DC4BD2DFE804F04A13181D63
:100910002223282D162C36D006DC092C28D0142CA6
:1009200027D0152C3CD129E0172C31D0632C37D19E
:1009300033E0FE490868FFF74FFD32E0FB494868A5
:10094000FFF74AFD2DE0F949C868FFF745FD28E0AB
:1009500027E0F6490869FFF73FFD22E0F3494869BF
:10096000FFF73AFD1DE00720FFF756FD19E018E0FC
:1009700017E001F01EF9FFF7A3FD12E001F019F9ED
:10098000FFF7CCFD0DE001211620FFF7F5FD08E093
:1009900000211720FFF7F0FD03E0FFF796FE00E0CF
:1009A00000BF00BF002700244FF001081DE72DE91C
:1009B000FC5F05460E464FF0000A4FF0010B002782
:1009C00000200190804655F8260001F0B6F88146D7
:1009D000C8466BE0BBF1010F07D14FF0000B40465A
:1009E00001F0C9F8009002F0DFF8FFF7F1FC0446CF
:1009F000A4F13000162851D2DFE800F0140B0C0DE2
:100A00000E0F10111213505050505050505050476C
:100A1000501E00BF00BF00BF00BF00BF00BF00BF2F
:100A200000BF00BF3FB1A4F1300008EB880100EB2C
:100A300041084FF0010B32E0D7B10027404601F0EA
:100A40009AF845F82600AFF21C2001F023FD4FF480
:100A5000FA7007F08DFC404601F08DF8009002F02E
:100A6000A3F84FF4FA7007F083FC0120019009E02D
:100A7000AFF2482001F00EFDC82007F079FC0127F5
:100A80004FF000084FF0010B09E027B100274FF0AD
:100A9000010BC84601E04FF0010A00E000BF00BFB3
:100AA000BAF1010F02D10198BDE8FC9F92E72DE950
:100AB000F04790B005460027B9464FF0010A4021A3
:100AC00068460AF09BFAB846A3E0BAF1010F28D1B4
:100AD0004FF0000A00241EE0012D05D1944850F883
:100AE00024004DF8240014E0022D05D1914850F85F
:100AF00024004DF824000CE0032D06D18E4800EBB5
:100B00000410C0684DF8240003E05DF824004DF89F
:100B10002400601CC4B2102CDEDB294687A002F042
:100B200059F8FFF755FC0646362E17D008DCA6F11B
:100B3000310005285CD2DFE800F00C0D0E0F10002C
:100B4000372E0CD0382E0BD0432E12D0452E4FD13D
:100B500018E000BF00BF00BF00BF00BF00BF00BF64
:100B60003246294677A002F035F8A6F13000C7B228
:100B70003FE0002F03DD00274FF0010A01E04FF0B6
:100B8000010936E0002F30DD781EC1B26846FFF75C
:100B90000EFF002828DD00241EE0012D05D15DF8A0
:100BA0002410634840F8241014E0022D05D15DF8AC
:100BB0002410604840F824100CE0032D06D15DF8A5
:100BC00024005D4901EB0411C86003E05DF82400D6
:100BD0004DF82400601CC4B2102CDEDB04F0CFF80A
:100BE00008F101001FFA80F800274FF0010A00E029
:100BF00000BF00BFB9F1000F08DDB8F1000F03DD41
:100C0000012010B0BDE8F0870020FAE7322007F09D
:100C1000AFFB5AE72DE9F04F9FB0074600201E902A
:100C200001201D904FF0000B00201C900026142185
:100C300015A80AF0E3F9142110A80AF0DFF9B1466B
:100C4000B04601200D90002415E0381D035D0830EA
:100C500050F8242021463DA005F00CF907F10C00C6
:100C600050F8241005A840F82410381D015D03A891
:100C70000155601CC4B2082CE7DB3868029000E222
:100C80001D9801281BD100201D90B9F1000F17D12C
:100C90000D9801280DD1AFF26C4001F0FBFB4FF431
:100CA000FA7007F065FB00200D90029800F045FFF8
:100CB0000646304600F05FFF019001F075FF23E12A
:100CC0000D98012874D100200D90AFF2A04001F0E2
:100CD000E1FB4FF4FA7007F04BFBA9F1010105AA03
:100CE00052F8210000F029FF1B90142115A80AF0EA
:100CF00085F9002500200F9013E00A211B98B0FB16
:100D0000F1F201FB12000E901B98B0FBF1F01B906A
:100D100014490E980A5C0F98411CC9B20F9110A992
:100D20000A541B980028E8D10F981DE014420010C7
:100D3000643E001050420010C4330010413025645E
:100D40002E300000413025642E2563007261746FDF
:100D50005B25645D2063683D2564206E756D3D25CF
:100D6000640D0A0070C90000042804DA0F98C0F16D
:100D700004002844C5B2F84800788DF857000F9C4D
:100D800009E0601E10A90A5C2846691CCDB215A9AD
:100D90000A54601EC4B2002CF3DCF048C0781A90EC
:100DA0001A98012805D0022814D0032849D129E037
:100DB0007CE09DF8560030B9E748007840F08000AC
:100DC0008DF8560005E09DF8560040F080008DF843
:100DD000560037E09DF8550030B9DF48007840F004
:100DE00080008DF8550005E09DF8550040F080002A
:100DF0008DF855009DF8560018B9D74800788DF841
:100E000056001FE09DF8540030B9D348007840F0F8
:100E100080008DF8540005E09DF8540040F08000FB
:100E20008DF854009DF8550018B9CB4800788DF81E
:100E300055009DF8560018B9C74800788DF856003F
:100E400000E000BF00BF40222846691CCDB215A9B2
:100E50000A54A9F1010003A90E5C0A20B6FBF0F0C8
:100E6000BD490A5C2846691CCDB215A90A540A205E
:100E7000B6FBF0F100FB1160B7490A5C2846691C1B
:100E8000CDB215A90A5400222846691CCDB215A975
:100E90000A542846691CCDB215A90A542846691C73
:100EA000CDB215A90A54E81F00F0FF08BBF1000FEE
:100EB00004D00821A81F15AA115403E04021A81F3F
:100EC00015AA11540A20B6FBF0F0A349095C681F6B
:100ED00015AA11540A20B6FBF0F100FB11609E49DF
:100EE000095C281F1154944608F1030E1CF80E30BB
:100EF00008F1020E1CF80E2008F1010E1CF80E106D
:100F00001CF8080006F0A1F8FFF762FA8246AAF181
:100F1000300016287DD2DFE800F0140B0C0D0E0F08
:100F200010111213ABABA1AB97ABABABAB5BAB335D
:100F300000BF00BF00BF00BF00BF00BF00BF00BFB9
:100F400000BFBBF1000F0ED0AAF1300006EB860106
:100F500000EB4106B9F1000F02D0632E00D9002644
:100F600001201D900BE0AAF13000092190FBF1F265
:100F700001FB120000F0FF0901201D900D9078E0A8
:100F8000BBF1000F17D04FF0000BB9F1000F04D1E7
:100F9000304600F0F0FD029008E06420B6FBF0F16E
:100FA00000FB1166A9F1010003A90E5401201D9058
:100FB0000D901C9009E0AFF28C7001F06BFAC82024
:100FC00007F0D6F94FF0010B002601201D9050E0EC
:100FD000BBF1000F05D04FF0000B01201D900D90CC
:100FE00031E00026002408E005A850F8241003A8EA
:100FF000005D01FB0066601CC4B2082CF4DB0298A3
:10100000B04217D156A001F045FA0298386000248A
:101010000DE02DE005A850F8241007F10C0040F871
:10102000241003A8015D381D0155601CC4B2082CB2
:10103000F0DB06E04CA001F02DFA4FF47A7007F0D7
:1010400097F901201E9014E0281F404505DD08F1A6
:10105000010000F0FF0801201D900AE0B8F1000F28
:1010600005DDA8F1010000F0FF0801201D9000E05F
:1010700000BF00BF1E98012803D11C981FB0BDE817
:10108000F08FFDE52DE9F047824600270025A846B0
:101090004FF0010955E0B9F1010F07D14FF00009F8
:1010A0002E488678314632A001F094FDFFF790F982
:1010B0000446302C06D0312C05D0432C29D0452CA9
:1010C00030D109E000BF35B1A4F13000C6B23146DD
:1010D00027A001F07FFD26E07DB100251F48867026
:1010E00001274FF00109AFF6BC0001F0D3F9C82089
:1010F00007F03EF903F043FE0AE0AFF6D00001F03E
:10110000C9F9C82007F034F91BA001F063FD0125DF
:1011100009E0002D03DD00254FF0010901E04FF04B
:10112000010800E000BF00BFB8F1000F06DD002F8E
:1011300002DD0120BDE8F0870020FBE7322007F048
:1011400017F9A8E72DE9F047824600270025A846B1
:101150004FF0010974E0000070C900000031001078
:101160004850303000000000485045450000000065
:1011700043452D256400000043452D30000000004C
:10118000B9F1010F08D14FF0000900F0B4FA06469A
:101190003146F7A001F01EFDFFF71AF90446332C83
:1011A0000FD006DC302C09D0312C08D0322C38D1AD
:1011B00006E0432C2CD0452C33D10BE000BF00BF00
:1011C00000BF35B1A4F13000C6B23146E8A001F04D
:1011D00001FD27E085B10025304600F066FA0127C1
:1011E0004FF00109AFF6BC1001F054F9C82007F028
:1011F000BFF803F0C4FD0AE0AFF6D01001F04AF9E1
:10120000C82007F0B5F8DCA001F0E4FC012509E0F6
:10121000002D03DD00254FF0010901E04FF001082A
:1012200000E000BF00BFB8F1000F06DD002F02DDB7
:101230000120BDE8F0870020FBE7322007F098F896
:101240009EE72DE9F04706460F460025A9464FF0D8
:10125000010AA84660E0BAF1010F05D14FF0000A7B
:101260003146C7A001F0B6FCFFF7B2F80446362CB1
:1012700017D008DCA4F1310005283DD2DFE800F0EA
:101280000C0D0E0F1000372C0CD0382C0BD0432C2B
:1012900012D0452C30D118E000BF00BF00BF00BF06
:1012A00000BF00BF00BF22463146B7A001F092FC4C
:1012B000A4F13000C5B220E0002D03DD00254FF081
:1012C000010A01E04FF0010917E0002D11DD691E50
:1012D00001EB410202EBC10107EB8100FFF79AFC31
:1012E000002805DD03F04BFD08F101001FFA80F82E
:1012F00000254FF0010A00E000BF00BFB9F1000F68
:1013000007DDB8F1000F02DD0120BDE8F087002005
:10131000FBE7322007F02CF89DE72DE9F047044663
:101320004FF0000800264FF00109B246277860E030
:10133000B9F1010F08D14FF00009384601F0B9FAB0
:10134000394694A004F096FDFFF742F80546332D88
:101350000FD006DC302D09D0312D08D0322D3DD1F3
:1013600006E0432D0CD0452D38D112E000BF00BF60
:1013700000BF26B1A5F13000C7B24FF001092EE041
:1013800026B1002627784FF0010901E04FF001084F
:1013900025E0BEB100262770AFF6703001F07AF874
:1013A0004FF4FA7006F0E4FF384601F082FA4FF489
:1013B000FA7006F0DDFF4FF0010803F0E0FC4FF09B
:1013C000010A08E0AFF69C3001F064F8C82006F08E
:1013D000CFFF012600274FF0010900E000BF00BF4A
:1013E000B8F1000F02D05046BDE8F087322006F079
:1013F000BFFF9DE72DE9F04701274FF000080025CA
:10140000A9460024B2E0012F03D1002764A001F017
:1014100041F8FEF7DDFF0646A6F13000162838D267
:10142000DFE800F0140B0C0D0E0F101112133737FC
:101430003737373737373730372500BF00BF00BF62
:1014400000BF00BF00BF00BF00BF00BF05EB8500AD
:1014500006EB40003038C5B2632D01DD002000E00E
:1014600028460546294646A001F0B4FB12E045B1E6
:101470004FF00109AFF64C4001F00CF8C82006F01F
:1014800077FF07E00DB1002501E04FF001080127CB
:1014900000E000BF00BFB9F1000F5AD02E464FF058
:1014A0000009002501270A2E51D2DFE806F0500579
:1014B0000E17292F3A50444A3BA000F0EBFF0120C1
:1014C000FFF7F5FA204484B242E039A000F0E2FFD1
:1014D0000220FFF7ECFA204484B239E036A000F095
:1014E000D9FF0320FFF7E3FA204484B2002C06DD85
:1014F00033A004F0BFFC00F098FC01F0A0FF27E04F
:101500003648FFF70AFF204484B221E034A000F0FF
:10151000C1FF3249491C0520FFF793FE204484B2E5
:1015200016E031A000F0B6FF31490620FFF789FE32
:10153000204484B20CE00820FFF704FE204484B26B
:1015400006E00920FFF79EFD204484B200E000BFC2
:1015500000BFB8F1010F06D1002C02DD0120BDE86B
:10156000F0870020FBE7322006F002FF4BE7000087
:10157000432D2D2564000000432D2D300000000078
:1015800041253032642E300041253032642E2563EF
:1015900000000000706F696E743D25640D0A000044
:1015A0004130302E300000004130312E300000003C
:1015B0004130322E300000004130332E3000000028
:1015C0004D454E553A686F70706572206368616E64
:1015D0006765642E2E2E0D0A0000000003310010F6
:1015E0004130352E300000004130362E30000000F2
:1015F0006432001010B5002431E0FEF7E9FE044625
:1016000064B3442C08D100201749087017480078AB
:10161000401C164908700FE03E2C08D100201349E9
:10162000087011480078401C0F49087004E0002041
:101630000E4908700C4908700B480078032804DB39
:10164000002009490870022010BD084800780328CE
:1016500005DB0020054908700120F5E700E0CCE734
:1016600000BF0020F0E700000000001001000010A3
:10167000FA49097821F00F01F84A117011460978EA
:1016800000F00F021143F54A11707047F3490978D1
:1016900021F0F001F14A11701146097800F00F02B3
:1016A00041EA0211ED4A11707047EC49497821F086
:1016B0000F01EA4A51701146497800F00F021143B8
:1016C000E64A51707047E549497821F0F001E34A54
:1016D00051701146497800F00F0241EA0211DF4AC9
:1016E00051707047DD48007800F00F007047DB480C
:1016F000007800097047D948407800F00F00704723
:10170000D64840780009704710B50446FFF7EAFF55
:10171000022803D1204602F0ACF910BD0120FCE7FD
:1017200070B50446FFF7E7FF022804D1204602F017
:10173000BCFF05461AE0FFF7DEFF012809D1012CA6
:1017400003D103F01FFE054610E003F0EDFD054652
:101750000CE0FFF7D0FF032808D1012C03D103F0E0
:10176000D8FE054602E003F0A6FE0546284670BDF9
:1017700010B50146FFF7B6FF02460023022A10D13A
:10178000B7484068884205D3B5484068401AB44C11
:10179000606007E0B24840680B1A0020B04C6060FF
:1017A00000E00B46184610BD70B50446FFF7A3FFD6
:1017B00005460026022D15D1AA48D0F89400A04273
:1017C00007D3A848D0F89400001BA649C1F894009C
:1017D00017E0A448D0F89400261A0020A149C1F8C7
:1017E00094000EE0012D04D1204603F0D3FE0646FE
:1017F00007E0032D04D1204603F0CCFE064600E0AE
:101800002646304670BD00B5FFF76CFF0146022941
:1018100002D19348406800BD0020FCE710B5FFF7F7
:101820006AFF0446022C03D18E48D0F8940010BD04
:10183000012C02D103F0ABFEF9E7032C02D103F037
:10184000A6FEF4E70020F2E770B50024FFF74AFF98
:101850000546022D18D18248007840F001008049E9
:1018600008700846408840F00100488002F049FCBA
:101870000446012C09D17A48007820F0010078490B
:1018800008700020488000E00024204670BD70B53C
:101890000025FFF730FF0446022C1AD17148007A68
:1018A00040F001006F4908720846408940F001018C
:1018B0006C48418103F097F80546012D18D169481D
:1018C000007A20F0010067490872002165484181D3
:1018D0000EE0012C05D16149887803F041FD012516
:1018E00006E0032C04D15D49887803F000FE012551
:1018F000FFF706FF0446012C02D100F096FA0125FD
:10190000284670BD00B5FFF7EDFE0246022A08D159
:1019100053480178007820F08000514B1870084639
:1019200000BD0020FCE700B5FFF7DCFE0146022900
:1019300002D14B48408800BD0020FCE770B5002470
:10194000FFF7D9FE0546022D07D14648047A007AF2
:1019500020F08000434908720FE0FFF7CCFE0546F7
:10196000012D01D0032D08D103F027FE012802D15B
:1019700024F0020401E044F00204204670BD10B5DA
:10198000FFF7B9FE02460023022A02D135484389F7
:1019900015E0FFF7B5FE0246012A0FD10023002112
:1019A00009E0314800EB011080784C00A04018435A
:1019B00083B2481CC1B20829F3DB00E000231846BB
:1019C00010BD2DE9F84F06464FF0000AD34616B970
:1019D0000020BDE8F88F2248807B08B90020F8E796
:1019E000002400251EE01E48C83050F825704238FB
:1019F00030F81580A7B1B8F1000F11DD4FF00009E4
:101A000007E03C44B44200D905E009F101001FFAA7
:101A100080F9C145F5DB00BFB44201D9E41B03E006
:101A2000681CC5B2102DDEDB00BF0CB90020D0E76A
:101A30000B48007800F0020010B14FF0000A04E0FB
:101A40004FF0010A0020FFF75FFE0648007A00F021
:101A5000020058B14FF0000B0DE000000031001003
:101A6000483E0010743F0010C43300104FF0010BCB
:101A70000020FFF755FE642006F07AFC204602F0B5
:101A8000F0FA0090642006F073FCBBF1010F02D164
:101A90000120FFF745FEBAF1010F02D10120FFF747
:101AA00033FE009895E72DE9FF410746002000909E
:101AB00001900290039017B904B0BDE8F0814FF097
:101AC00000084348007800F0020008B1002603E057
:101AD00001260020FFF718FE3E48007A00F00200C1
:101AE00008B1002503E001250020FFF719FE64205E
:101AF00006F03EFCFFF704FE0446022C04D13846F3
:101B000002F097FE804609E0012C05D1694638466F
:101B100000F093FB804601E04FF00008642006F0DF
:101B200027FC012D02D10120FFF7FAFD012E02D181
:101B30000120FFF7E9FD4046BEE701460020264AA6
:101B4000D27832B1012A08D0022A0AD0032A0ED153
:101B500009E06422B1FBF2F00BE00A22B1FBF2F0E3
:101B600007E0084605E001EB8102500001E008466D
:101B700000BF00BF704701460020174AD27832B13B
:101B8000012A08D0022A0AD0032A0ED109E06422D1
:101B900001FB02F00BE001EB8102500007E0084678
:101BA00005E00A22B1FBF2F001E0084600BF00BFE9
:101BB000704710B5FFF727FE04462046FFF7D8FD13
:101BC000FFF72CFE04462046FFF7EEFD10BD000097
:101BD000483E0010743F0010003100102DE9F05F06
:101BE00007468946924600244021F84809F006FA43
:101BF000B9F1500F03D1F648C05D401C01E0F44834
:101C0000C05DF349C855ED222046611CCCB2F149B4
:101C10000A5408222046611CCCB2EE490A54EC4812
:101C2000C25D2046611CCCB2EA490A542046611CC0
:101C3000CCB2E84901F800902046611CCCB2E549DD
:101C40000F542046611CCCB2E24901F800A04FEAD3
:101C50001A222046611CCCB2DE490A540721DD4815
:101C600006F052FB2146621CD4B2DA4A505404F00A
:101C70006DFC07F0BCFA0821D64804F050FC07F0D0
:101C8000F4FA2146D4A004F0F5F8002606E0D14885
:101C9000815DD5A004F0EEF8701CC6B2A642F6DB5A
:101CA000D3A004F0E7F800246420D249C8804BE0B8
:101CB00004F042FC012844D104F04EFC05463CB936
:101CC000FD2D41D12046611CCCB2C0490D543BE0F2
:101CD000012C06D1A8462046611CCCB2BB490D544C
:101CE00032E0A8F10100A04225DC2046611CCCB204
:101CF000B6490D54A8F1010081B2B44806F004FBC6
:101D00008346AB4520D1B1484178BBA004F0B2F87E
:101D1000002606E0AD48815DB3A004F0ABF8701C6E
:101D2000C6B2AA484078B042F4DCB1A004F0A2F8F0
:101D30000120BDE8F09F2046611CCCB2A3490D54A0
:101D400002E0142006F014FBAA48C0880028AFD196
:101D500000BFEEE770B50446207800225121FFF75E
:101D60003DFF0646012E40D19848407808283AD1D8
:101D7000207896490979884235D19448C5782078E9
:101D8000411C2A46A0A004F075F805F0020008B135
:101D9000032070BD05F0040010B905F0800008B103
:101DA0000320F6E715B90020A07014E005F0080044
:101DB00010B905F0200008B10120A07005F0100056
:101DC00010B905F0400008B10220A070A0780128E9
:101DD00001D00220A0707D488179407961F31F20F5
:101DE00020810120D5E76320D3E70020D1E72DE94A
:101DF000F04105460E46002713E028783246502170
:101E0000FFF7ECFE0446012C06D170484078062806
:101E100002D10120BDE8F081642006F0A9FA781C07
:101E2000C7B2032FE9DB0020F4E72DE9F0410027DA
:101E300000241DE0774800EB0410C668754800EBED
:101E400004100021016041608160C16004EB8401E5
:101E5000714A02EBC100282109F0D0F86D4800EB6F
:101E60000410C6606B4800EB04100470601CC4B220
:101E7000082CDFDB002456E00026002510E0654832
:101E800000EB0510C07848B9624800EB0510C06847
:101E9000B04203D95F4800EB0510C668681CC5B2A4
:101EA000082DECDB04EB84005B4901EBC0004660CD
:101EB0004EB3002525E0574800EB0510C068B0423E
:101EC0001DD104EB8400544911F8307004EB8400F8
:101ED00011F83000401C04EB84014F4A02F8310035
:101EE0004C4800EB051104EB840002EBC000083005
:101EF00040F827100120474901EB0511C870681C04
:101F0000C5B2082DD7DB04EB8400434901EBC000C8
:101F1000436804EB840011F8302021463FA003F011
:101F2000A9FF601CC4B2082CA6DB44A003F0A2FFEA
:101F3000BDE8F0810246082A00DC0AB9002070479B
:101F4000501E344B03EB0010C1600120F7E770B561
:101F500005460C4621462846FFF749FF0646012E56
:101F600001D0002070BD4FF47A7006F001FA04EB46
:101F70004400C0EBC41041F2883101EB40001D4920
:101F800008810FE02846FFF7E5FE0646012E06D140
:101F90002889A04201D10120E4E70020E2E7642083
:101FA00006F0E6F9134800890028EBD100BFD9E715
:101FB0002DE9F04104460E46002C02DD082C00DC21
:101FC00016B90020BDE8F08142E00000C4350010E1
:101FD000020000108435001048502D53454E445BDC
:101FE00025645D3A000000002530327820000000B2
:101FF0000D0A00003444001048502D524543565BF2
:1020000025645D3A0000000048505B25645D3D2575
:10201000780D0A00C4330010443400104C65766516
:102020006C3D2564206E756D203D25642076616CC5
:102030007565203D2025640D0A000000686F7070F2
:102040006572496E6974206F7665722E2E0D0A00D6
:10205000601ED94901EB001731463846FFF7C7FE2D
:102060000546012D02D00020BDE8F0814FF47A70C2
:1020700006F07EF906EB4600C0EBC61041F288314F
:1020800001EB4000CD4908810AE03846FFF762FEC7
:102090000546012D01D13889E6E7642006F068F98C
:1020A000C64800890028F0D100BFDDE72DE9FE4FCA
:1020B00005468A4616460020029001908046BAF1F5
:1020C000000F01D1BDE8FE8F082D06DB082229464E
:1020D000BBA003F0CFFE0020F4E705EB8500BF496D
:1020E00011F8300028B92946BDA003F0C3FE002036
:1020F000E8E7002710E005EB8500B84901EBC000D8
:10210000083050F82740207920B1A07810B901207C
:10211000029008E0781CC7B205EB8500AF4911F8C2
:102120003000B842E7DC00BF029848B305EB8500F9
:10213000AA4901EBC000083050F82740514620461C
:10214000FFF705FF8146B9F1010F0DD108EB0A0039
:102150001FFA80F8207836F8100021890844217889
:1021600026F811004046ADE7207836F810002189A6
:102170000844217826F81100208940441FFA80F88D
:10218000002751E005EB8500944901EBC0000830C1
:1021900050F827406079012800DB43E04FF0000B46
:1021A0003CE0AAEB080080B2019020460199FFF7BD
:1021B000CEFE814622784B46294692A003F05AFE75
:1021C000B9F1010F0FD1019840441FFA80F820782F
:1021D00036F8100021890844217826F811000020E3
:1021E000607140466EE7207836F810002189084477
:1021F000217826F81100208940441FFA80F8CDF894
:10220000008023893A46514688A003F033FE607966
:10221000401C60710BF1010000F0FF0BBBF1020FDD
:10222000BFDB00BF781CC7B205EB85006B4911F816
:102230003000B842A6DC404644E72DE9F0470546A9
:102240000F464FF0000AD0460026002430E004EB91
:102250008400624901EBC000406838B304EB84009D
:1022600001EBC0004068B5FBF0F01FFA80F8424671
:1022700021467DA003F0FEFD3A4641462046FFF789
:1022800015FF824604EB8400544901EBC00040680E
:102290000AFB0066AE4201D8AD1B00E00025B9F193
:1022A000010F03D115B93046BDE8F087601CC4B2F8
:1022B000082CCCDB3046F7E7734801780BE03E484A
:1022C00000EB0110C06820B1481C6F4A107008462E
:1022D0007047481CC1B20829F1DB00210BE03648E9
:1022E00000EB0110C06820B1481C674A1070084616
:1022F000EEE7481CC1B2644800788142EFDBFF2062
:10230000E6E710B500242D48408980BBFFF7D4FFD5
:102310000446FF2C27D0284901EB0410FFF71AFDD3
:1023200088B9254800EB04108079642805DA224832
:1023300000EB04108079401C00E064201E4901EB92
:102340000411887104E000201B4901EB041188711D
:10235000194800EB04108079052804DB0320164996
:1023600001EB041188704FF49670144948810120E4
:1023700010BD024608210AE0481E00EB8000174B02
:1023800003EBC000406800B103E0481EC1B2002961
:10239000F2DC00BF51B1481E00EB80000F4B03EB95
:1023A000C0004068904201D9012070470020FCE73E
:1023B00010B5FFF7A6FF10BDC43300103444001061
:1023C000546865206C6576656C203D202564203E50
:1023D000202564286D617829200D0A0044340010FE
:1023E000546865206C6576656C203D2025642075F9
:1023F000736561626C654E756D203D206973203098
:10240000200D0A0053656C6563742D2D6C6576652F
:102410006C203D20256420616464723D2025642089
:10242000726573203D25640D0A00000050617943F8
:102430006F756E74203D2025642C686F7070657216
:102440005B25645D2D3E6C617374436F756E742003
:102450003D25642C6368616E676564436F756E74B7
:10246000203D25640D0A0000436F696E206C65767F
:10247000656C5B25645D2E706179436F756E7420A9
:102480003D202564200D0A000A00001010B505F05B
:10249000C8F910BDFEB506460020009001900290DC
:1024A0000024304608F0EAFCC7B20025B2E0705DB7
:1024B0002D38292870D2DFE800F0898D9E151A1F6B
:1024C00024292E33383D429E9E9E9E9E9E9E474CC2
:1024D000519E565B9E60659E9E6A9E9E84709E7510
:1024E0007A9E7F00F848807D0DF8040088E0F64869
:1024F00040780DF8040083E0F34880780DF804007C
:102500007EE0F148C0780DF8040079E0EE480079EB
:102510000DF8040074E0EC4840790DF804006FE019
:10252000E94880790DF804006AE0E748C0790DF8C1
:10253000040065E0E448007A0DF8040060E0E24839
:10254000407A0DF804005BE0DF48807A0DF8040063
:1025500056E0DD48C07A0DF8040051E0DA48007B0F
:102560000DF804004CE0D848407B0DF8040047E02B
:10257000D548807B0DF8040042E0D348C07B0DF8BD
:1025800004003DE0D048007C0DF8040038E0CE485F
:10259000407C0DF8040033E02DE0CB48807C0DF842
:1025A00004002DE0C848C07C0DF8040028E0C648AF
:1025B000007D0DF8040023E0C348407D0DF80400C1
:1025C0001EE0C148807D0DF8040019E040200DF8A0
:1025D000040015E034B99DF8000040F080008DF84B
:1025E000000007E0601E1DF8000040F08001601E42
:1025F0000DF8001004E0B448C07D0DF8040000BFE1
:1026000000BF705D2E2801D1204600E0601CC4B2DE
:10261000681CC5B2BD42FFF64AAF9DF803309DF875
:1026200002209DF801109DF8000004F00EFDFEBD93
:1026300010B5A6A0FFF72EFF10BD2DE9F04107460B
:102640008846154642F21070844215D3B4FBF0F070
:1026500086B20021304604F0DFF8C82007F01AFCEB
:1026600042F21070B4FBF0F100FB1146E81CC1B25D
:10267000304604F0D1F803E0A0B2294604F0CCF8CB
:10268000BDE8F0812DE9F84F04460D46002000908A
:102690000027264600BF012D14D10A2C5CD20A2047
:1026A000B4FBF0F100FB1140874911F80090084697
:1026B000007840F080024B460021084604F0C5FC3B
:1026C000BDE8F88F022D18D1642C45D20A20B4FB46
:1026D000F0F100FB11407C4911F800900A20B4FB96
:1026E000F0F011F800A00846007840F080014B4659
:1026F0005246002004F0A9FCE2E7032D23D1B4F5F3
:102700007A7F29D20A20B4FBF0F100FB11406E4918
:1027100011F800906420B4FBF0F100FB11400A2195
:10272000B0FBF1F0684911F800A06420B4FBF0F0B0
:1027300011F800B0097841F080004B4652465946E6
:1027400004F083FCBCE73CB95F48037800221146E3
:10275000104604F07AFCB3E70FE00A20B6FBF0F174
:1027600000FB1168584810F808203846791CCFB291
:102770000DF800200A20B6FBF0F60EB1042FECDBBA
:10278000012D04D0022D09D0032D15D10DE09DF8A7
:10279000010040F080008DF801000EE09DF802007D
:1027A00040F080008DF8020007E09DF8030040F043
:1027B00080008DF8030000E000BF00BF9DF80030EE
:1027C0009DF801209DF802109DF8030004F03DFCE7
:1027D00000BF75E72DE9F04788B00746884600241A
:1027E00000252021684608F009FC3E4600BF0EE0A7
:1027F0000A20B6FBF0F100FB1169B6FBF0F6324897
:1028000010F809202846691CCDB20DF80020002ED2
:10281000EED100222846691CCDB20DF800202846D2
:10282000691CCDB20DF800202846691CCDB20DF808
:102830000020B8F1010F06D0B8F1020F0AD0B8F1AC
:10284000030F15D10DE09DF8010040F080008DF8D8
:1028500001000EE09DF8020040F080008DF80200BB
:1028600007E09DF8030040F080008DF8030000E0D1
:1028700000BF00BF2C4617E0A4F1040C1DF80C307B
:10288000A4F1030C1DF80C20A4F1020C1DF80C108F
:10289000A4F1010C1DF80C0004F0D7FB4FF4967066
:1028A00005F066FD601EC4B2042CE5DA08B0BDE890
:1028B000F08710B5044642F2107084420AD300211A
:1028C0002046FFF787FF09E070C900002C2C2C3050
:1028D0000000000000212046FFF7D4FE10BD10B517
:1028E00004461CB10520FFF7E4FF02E00020FFF7DB
:1028F000E0FF10BD10B50446032C1AD004DC012CF7
:1029000007D0022C26D10CE0042C1AD0632C21D144
:102910001FE0FE4A917D107B40231A4604F095FB90
:1029200019E0FA4A517CD07A40231A4604F08DFB14
:1029300011E0F64A917CD07B40231A4604F085FBD7
:1029400009E0F24A517C107B40231A4604F07DFBDB
:1029500001E000E000BF00BF10BD2DE9F04F89B0DD
:102960008046894600240025202101A808F046FB66
:10297000A346464600BF0EE00A20B6FBF0F100FB7E
:10298000116AB6FBF0F6E14810F80A202846691CE7
:10299000CDB201A90A54002EEED100222846691CAE
:1029A000CDB201A90A542846691CCDB201A90A5426
:1029B0002846691CCDB201A90A54B9F1010F06D00D
:1029C000B9F1020F0AD0B9F1030F15D10DE09DF84E
:1029D000050040F080008DF805000EE09DF806002F
:1029E00040F080008DF8060007E09DF8070040F0F9
:1029F00080008DF8070000E000BF00BF2C4618E003
:102A0000A4F1040C0DF1040E1EF80C30A4F1030C1B
:102A10001EF80C20A4F1020C1EF80C10A4F1010CFD
:102A20001EF80C0004F011FBFA2005F0A1FC601E5A
:102A3000C4B2042CE4DA0424B5E0FDF7C9FC07466F
:102A400038463C2F3ED03E2804D0432872D045283B
:102A500071D171E0AC4216DA601CC4B2A4F1040C6E
:102A60000DF1040E1EF80C30A4F1030C1EF80C201E
:102A7000A4F1020C1EF80C10A4F1010C1EF80C00BD
:102A800004F0E3FA1DE000231A461946184604F044
:102A9000DCFA4FF4967005F06BFCA4F1040C0DF118
:102AA000040E1EF80C30A4F1030C1EF80C20A4F147
:102AB000020C1EF80C10A4F1010C1EF80C0004F01E
:102AC000C4FA66E0042C16DD601EC4B2A4F1040C46
:102AD0000DF1040E1EF80C30A4F1030C1EF80C20AE
:102AE000A4F1020C1EF80C10A4F1010C1EF80C004D
:102AF00004F0ABFA1DE000231A461946184604F00C
:102B0000A4FA4FF4967005F033FCA4F1040C0DF117
:102B1000040E1EF80C30A4F1030C1EF80C20A4F1D6
:102B2000020C1EF80C10A4F1010C1EF80C0004F0AD
:102B30008CFA2EE01FE02BE000231A4619461846B7
:102B400004F083FA4FF4967005F012FCA4F1040C23
:102B50000DF1040E1EF80C30A4F1030C1EF80C202D
:102B6000A4F1020C1EF80C10A4F1010C1EF80C00CC
:102B700004F06BFA0DE000231A461946184604F0DB
:102B800064FA4FF4FA7005F0F3FB4FF0010B00E02C
:102B900000BF00BFBBF1010F02D109B0BDE8F08F4B
:102BA000322005F0E5FB48E770B505462846FEF7FC
:102BB000C4FF044642F21070844205D35448C178E1
:102BC0002046FFF707FE04E05148C1782046FFF792
:102BD00059FD70BD0FB400B591B04021684608F0B2
:102BE0000DFA4021684608F009FA13A810906846CB
:102BF000109A129908F030F9002010906846FFF7FB
:102C000049FC11B05DF814FB021DD0B2414A126CB0
:102C1000012383401A433F4B1A6439B91A46926D17
:102C2000012383401A433B4B9A6506E0394AD36D32
:102C3000012282401343374AD365704700B53648B6
:102C40000078002849D135480078012826D1002095
:102C50003249087032488078012802D030488078A4
:102C600018B900210120FFF7CFFF2D48807C0128F3
:102C700002D02B48807C18B900210220FFF7C4FF46
:102C8000274890F82200012803D0254890F8220018
:102C900000BB00210320FFF7B7FF1BE001201F4905
:102CA00008701F488078012803D101210846FFF7EA
:102CB000ABFF1B48807C012803D101210220FFF7D4
:102CC000A3FF174890F82200012803D10121032017
:102CD000FFF79AFF5020104908701248007800282A
:102CE0006AD11148007801283AD100200E490870B5
:102CF0000B488078022803D009488078032803D144
:102D000000210120FFF780FF05480FE070C9000097
:102D10000031001000C009200B0000100D00001051
:102D2000C43300100C0000100E000010807C02283C
:102D300003D02D48807C032803D100210220FFF717
:102D400063FF294890F82200022804D0264890F812
:102D5000220003282DD100210320FFF755FF28E092
:102D600001202249087020488078022803D01E489C
:102D70008078032803D101210846FFF745FF1A4850
:102D8000807C022803D01848807C032803D10121CD
:102D90000220FFF739FF144890F82200022804D0DF
:102DA000114890F82200032803D101210320FFF7E6
:102DB0002BFF14200E4908700E480078002803DD10
:102DC0000C480078401E00E000200A4908700848BE
:102DD0000078002803DD06480078401E00E000204F
:102DE0000349087000BD0000C43300100E0000103D
:102DF0000C0000100B00001010B51421F94807F06A
:102E000072FDF94908601421F84807F06CFDF84993
:102E1000086010BD70B50446F648007800EB40002D
:102E2000F54901EB00100470F248007800EB400017
:102E30000A4602EB0011EC48006807F079FE0546EF
:102E4000EC480078401C142190FBF1F201FB1200C9
:102E5000E84908700DB9012070BD0020FCE770B58D
:102E60000446E648007800EB4000E54901EB00101D
:102E70000470E248007800EB40000A4602EB0011C3
:102E8000DB48006807F054FE0546DC480078401C2B
:102E9000142190FBF1F201FB1200D84908700DB922
:102EA000012070BD0020FCE770B504460D46D148F6
:102EB000007800EB4000D04901EB00104470CD4891
:102EC000007800EB400001EB001085700220FFF756
:102ED000A1FF70BD70B5044600250CB9002070BD7F
:102EE000607800F0010010B1A078FEF70DFC60786A
:102EF00000F0020010B1A078FEF712FC2846EEE7C1
:102F0000BC48007800EB4000BB4901EB0010704763
:102F100070B504460D46B748007800EB4000B6494E
:102F200001EB0010C460B348007800EB400001EBF7
:102F3000001085600320FFF76DFF70BD2DE9FF5F76
:102F400004464FF000080027BB4600200090019087
:102F500002900390002614B904B0BDE8F09F2279D6
:102F6000E178A8A002F086FF0020FEF7CDFB00204C
:102F7000FEF7D6FB002700200090019002900390FE
:102F8000E078002825DDE078401E00EB400101EBF1
:102F9000C001A64800EB81063068D0B1E068316816
:102FA000B0FBF1F000F0FF0A002510E0301D405D9D
:102FB00000FB0AF16A462846FFF778F8814606F1D9
:102FC0000C0050F8251009FB0177681CC5B2082DCC
:102FD000ECDB2079002825DD2079401E00EB400144
:102FE00001EBC001924800EB81063068D0B1A068C7
:102FF0003168B0FBF1F000F0FF0A002510E0301D51
:10300000405D00FB0AF16A462846FFF74FF881460B
:1030100006F10C0050F8250009FB0077681CC5B2CA
:10302000082DECDBD4E9021000EB0108B84505D906
:10303000A8EB07006946FFF700F907443A46414606
:103040007CA002F017FF594684A002F013FF6B49E1
:10305000097801EB41016A4A02EB0111E068C8609E
:103060006649097801EB410102EB0111A068886013
:103070006248007800EB4000114601EB0010476108
:103080007DA002F0F7FE002513E03DF8152029464B
:103090007AA002F0EFFE3DF815105848007800EBDA
:1030A0004000574A02EB00101C3020F81510681C35
:1030B000C5B2082DE9DB70A002F0DCFEB8450BD9E3
:1030C000A8EB070B4D48007800EB40004C4901EBA2
:1030D0000010C0F818B008E000204849097801EB5A
:1030E0004101474A02EB01118861D4E902218818A5
:1030F000FEF73EFB8346594658A002F0BBFE5846F9
:10310000FEF752FB83460320FFF7A9FE24E770B5C4
:1031100004460D463748007800EB4000364901EB85
:10312000001044713348007800EB400001EB0010C0
:1031300085850420FFF76EFE70BD70B5044600253E
:10314000A18D6079FEF734FF05462C48007800EB2E
:1031500040002B4901EB001045610420FFF77FFE82
:1031600070BD38B56A4602211F48006807F078FC38
:1031700004469DF80000C8B9217844A002F07AFE08
:103180002078022804D0032806D004280CD107E0B8
:103190002046FFF79FFE08E02046FFF7CFFE04E041
:1031A0002046FFF7CAFF00E000BF00BF38BD38B5BA
:1031B00000246A4602210E48006807F051FC0446CC
:1031C0009DF8000008B9204638BD0020FCE7F8B59E
:1031D00004460D4600260A20B5FBF0F0401C31499C
:1031E00008827AE0043600101000001054360010F7
:1031F0001400001018000010A43600101900001070
:10320000643A00104445565F7061796F757452706E
:10321000743A625F726174696F3D25642C635F72FA
:103220006174696F3D25640D0A00000004310010CF
:10323000643200104445565F7061796F7574527046
:10324000743A616D6F756E743D25642C6368616EB0
:103250006765643D25640D0A000000004445565F23
:103260007061796F75745270743A72656D61696ED0
:103270003D25640D0A0000000D0A000068705B2502
:10328000645D203D2025640D0A0000004445565F22
:10329000726571506F6C6C3A747970653D25640D80
:1032A0000A000000344400106A463221F9480068E0
:1032B00007F0D6FB064622469DF80010F6A002F065
:1032C000D9FD9DF8000040B93078A04205D12146D3
:1032D000F8A002F0CFFD3046F8BDFC48008A002877
:1032E000E2D100BFF8E730B5002050E000EB40032A
:1032F00003EBC004F64B53F82430002B45D00022DA
:1033000000211FE000EB400303EBC004F04B03EB94
:1033100084030C33A3B100EB400303EBC004EC4B7C
:1033200003EB84030C3353F8214000EB400303EB21
:10333000C005E74B03EB85031B1D5B5C04FB03220D
:103340004B1CD9B20829DDDB00EB400303EBC004C2
:10335000DF4B53F82430934217D0002400EB400396
:1033600003EBC005DA4B43F8254000210BE00024B5
:1033700000EB400303EBC005D54B03EB85031B1D9E
:103380005C544B1CD9B20829F1DB431CD8B2082885
:10339000ACDB002050E000EB400303EBC004CD4B5E
:1033A00053F82430002B45D0002200211FE000EB11
:1033B000400303EBC004C74B03EB84030C33A3B1FE
:1033C00000EB400303EBC004C24B03EB84030C335C
:1033D00053F8214000EB400303EBC005BD4B03EB6A
:1033E00085031B1D5B5C04FB03224B1CD9B208291F
:1033F000DDDB00EB400303EBC004B64B53F8243095
:10340000934217D0002400EB400303EBC005B14BFF
:1034100043F8254000210BE0002400EB400303EBC0
:10342000C005AC4B03EB85031B1D5C544B1CD9B290
:103430000829F1DB431CD8B20828ACDB30BD70B5DD
:10344000002420E004EB8400A34901EBC0004068A5
:10345000B8B9601E00EB800001EBC0002146426855
:103460009EA002F007FD002C0ADD601E00EB80002C
:10347000994901EBC00040689E4908609E4804706D
:1034800003E0601CC4B2082CDCDB00BF002427E092
:10349000002521E005EB85008F4901EBC000416864
:1034A00004EB440000EBC402894800EB82000C30BE
:1034B00040F8251005EB8500874901EBC000416805
:1034C00004EB440000EBC402824800EB82000C30A5
:1034D00040F82510681CC5B2082DDBDB601CC4B2A7
:1034E000082CD5DBFFF7FFFE70BD70B5FEF703F9C2
:1034F0000646012E11D181A0FEF7CCFF7448001FB3
:10350000817880A002F0B6FC7149091F887801F02B
:1035100027FF87A0FEF7BEFF12E0032E10D177A091
:10352000FEF7B8FF6A48001F817883A002F0A2FC72
:103530006749091F887801F0DAFF7DA0FEF7AAFF2E
:10354000642004F015FFFEF7DBF80646012E34D1A7
:1035500084A0FFF73FFBFEF768FC4FF4FA7004F01D
:1035600007FF002425E0814800EB0410C068F0B19B
:10357000611C7FA0FFF72EFB7C4901EB0410FEF7D6
:10358000E9FB0546012D09D10122611C7AA0FFF754
:1035900021FB4FF4FA7004F0EBFE08E00022611CFE
:1035A00075A0FFF717FB4FF4FA7004F0E1FE601C02
:1035B000C4B2082CD7DBFFF742FF642004F0D8FE2A
:1035C000FEF790F80646022E32D16D48007840F0A2
:1035D00001006B4908700846408840F001004880AF
:1035E00068A0FFF7F7FA002416E000F08AFD054610
:1035F000012D0BD16248007820F00100604908706D
:103600000020488061A0FFF7E5FA07E04FF4FA7068
:1036100004F0AEFE601CC4B2032CE6DB00BF032C3A
:1036200006DB5CA0FFF7D6FA4FF47A7004F0A0FE38
:1036300070BD00BFFFF7E0FB00210120FFF7E4FAB7
:1036400000210220FFF7E0FA00210320FFF7DCFA57
:10365000FFF74BFF0120FFF702FC19E0FEF742F8ED
:103660000446022C01D100F0C2FDFEF744F80446E6
:10367000022C01D101F0FBF9FEF742F80446012CBF
:1036800001D1FEF795FEFFF76CFD502004F070FEAF
:10369000E4E70000140000104445565F6D73675264
:1036A00070743A6572723D25642C747970653D259D
:1036B000640D0A004445565F6D73675270743A7426
:1036C0007970653D25640D0A000000003444001047
:1036D00004310010643200104434001048505F6D13
:1036E000696E206E6F3D25642C63683D25640D0A6C
:1036F000000000001C00001020000010434F2D2D82
:1037000000000000434F494E5F4143434550544F32
:10371000525F50504C5553453A696E69743A686926
:10372000676874456E61626C653D25640D0A000032
:10373000434F2D3100000000434F494E5F4143434A
:103740004550544F525F53504C5553453A696E693A
:10375000743A6869676874456E61626C653D25649A
:103760000D0A000048502D2D00000000C433001049
:10377000485025642D000000485025642564000051
:10378000483E0010424C2D2D00000000424C2D31CF
:1037900000000000424C2D3000000000F8B5054646
:1037A0000E4617462421FB4807F028FCFA48F94B3F
:1037B0003A4631460090284604F008FE0446012CA3
:1037C00000D1F8BD0CB90020FBE70220F9E710B5E5
:1037D000002211463020FFF7E1FF0446204610BDCD
:1037E00070B50446002211463120FFF7D7FF064688
:1037F000012E01D0304670BDE64800782070E548C3
:103800004178807861F31F20A080E248C178007978
:1038100061F31F20E080DF4840792081E08800EBE1
:10382000C00101EB00104FF6FF7101EA80006081DA
:10383000002506E060890A2190FBF1F06081681C98
:10384000C5B22089A842F5DCD2488179C07961F3FC
:103850001F20A081CF48017A407A61F31F20E081C8
:10386000CC48807A08B1012000E00020607000257B
:1038700017E005F10B00C749085CFF2805D10021BE
:1038800004F1100040F8251009E005F10B00C149D2
:10389000085C6189484304F1100141F82500681C67
:1038A000C5B2102DE5DB2178BCA002F0E3FA0120BF
:1038B000A1E7F0B585B005461421684607F09EFBE8
:1038C000002404222146641C0DF801202A0A214606
:1038D000641C0DF80120EAB22146641C0DF8012099
:1038E000002612E00120B040284030B103222046DB
:1038F000611CCCB20DF8002005E000222046611CBE
:10390000CCB20DF80020701CC6B2102EEADB1322D8
:1039100069463720FFF742FF0746384605B0F0BD3D
:103920002DE9F0410446002060802070A080002234
:1039300011463320FFF732FF8046B8F1010F02D065
:103940004046BDE8F0819448007808B90120F8E7C6
:10395000002787E03846791CCFB28E490E5C06F00E
:103960008000F8B1C6F3021515B90220A08079E0F5
:10397000012D05D10120A08006F00F00607071E0DC
:10398000022D02D10420A0806CE0042D02D1082079
:10399000A08067E0032D02D11020A08062E000200B
:1039A000A0805FE006F02000E8B106F00F05062DCC
:1039B00004D0082D07D0092D13D109E0608840F408
:1039C000807060800EE0608840F00800608009E050
:1039D000322004F0CDFC7749B1F88000FFF769FF91
:1039E00000E000BF3EE006F00F050D2D38D2DFE805
:1039F00005F037070C11161B2025262B303132001D
:103A0000608840F4807060802BE0608840F00200A5
:103A1000608026E0207840F00800207021E0608877
:103A200040F0080060801CE0608840F0200060806A
:103A300017E0207840F01000207012E011E060885C
:103A400040F0400060800CE0207840F002002070E0
:103A500007E006E005E0608840F40070608000E068
:103A600000BF00BF4C4800788742FFF673AF0120CB
:103A700067E7F8B5064650A000680090012E21D1F6
:103A800000241DE04B481C3050F8240038B19DF84C
:103A900001000121A1400843C0B28DF80100454852
:103AA0001C3004F1080150F8210038B19DF80000E5
:103AB0000121A1400843C0B28DF80000601CC4B2CF
:103AC000082CDFDB00241DE0042269463420FFF7C8
:103AD00065FE0546012D10D1012E06D1354800782E
:103AE00020F002003349087005E03248007840F0C9
:103AF0000200304908700120F8BD962004F038FC1F
:103B0000601CC4B2032CDFDB012D01D10120F3E7DF
:103B10000020F1E738B501200090012269463520E8
:103B2000FFF73CFE0446012C00D138BD0020FCE725
:103B300038B500200090012269463520FFF72EFE9F
:103B40000446012C00D138BD0020FCE7F8B504463E
:103B5000002000900025012269463720FFF71EFE55
:103B60000746012F01D03846F8BD2846691CCDB262
:103B70000849085C20702846691CCDB20549085CDC
:103B800060702846691CCDB20249085CA0702146CD
:103B900014E00000243E00102200001062696C6CEA
:103BA0002D73657475703A6C6576656C203D2025C3
:103BB000640D0A00483E00100000FFFFFCA002F068
:103BC00059F9002608E02846691CCDB2FE49095C77
:103BD000E01C8155701CC6B20C2EF4DBE11CFBA06E
:103BE00002F048F9002609E02846691CCDB2F649E2
:103BF000095C04F10F008155701CC6B20C2EF3DB7A
:103C000004F10F01F6A002F035F92846691CCDB287
:103C1000ED49085CE0762846691CCDB2EA49095CAA
:103C200021770120A0E71CB5F3A103C9CDE900016C
:103C3000052269463720FFF7B1FD0446012C01D06B
:103C400020461CBD0120FCE7F8B504460220009088
:103C50000025012269463720FFF7A0FD0746012F06
:103C600001D03846F8BD2846691CCDB2D649085C5B
:103C700020702846691CCDB2D349085C6070284684
:103C8000691CCDB2D049085CA070002608E0284627
:103C9000691CCDB2CC49095CE01C8155701CC6B2D0
:103CA0000C2EF4DB002609E02846691CCDB2C6497B
:103CB000095C04F10F008155701CC6B20C2EF3DBB9
:103CC0002846691CCDB2C049085CE0762846691CCC
:103CD000CDB2BD49095C2177BB48405D0106BA4AB7
:103CE000681C105C41EA0041A81C105C41EA0020FD
:103CF000E91C515C084320622146ADA002F0BAF8ED
:103D0000E11CB2A002F0B6F804F10F01B4A002F079
:103D1000B1F8BBA0216A02F0ADF80120A2E7F8B526
:103D20000546032000900027012269463720FFF74F
:103D300035FD0646012E01D03046F8BDA248C15DD2
:103D40000246781C105C61F31F202880002413E0D9
:103D500028880121A140084038B1B24850F8241009
:103D600005F1480040F8241004E0002105F1480066
:103D700040F82410601CC4B2102CE9DB2988AAA0EA
:103D800002F078F80120D8E7F8B505460020009049
:103D900005208DF80000012269463720FFF7FEFC60
:103DA0000646012E01D03046F8BD8748017840789C
:103DB00061F31F20A88000219A481C3881600024EC
:103DC00024E0022000EB44007F49095C022000EB64
:103DD0004400401C7C4A105C61F31F20A91D21F89F
:103DE0001400A81D30F8140000280DDD8D481C3883
:103DF0008168A81D30F81420423050F8240002FBDE
:103E0000001188481C388160601CC4B2102CD8DBBB
:103E10000120C9E72DE9FC4106460D46002000902F
:103E20000190002406222146641C0DF80120214641
:103E3000641C0DF801602A0A2146641C0DF801205B
:103E4000EAB22146641C0DF801200422694637209D
:103E5000FFF7A4FC0746012F02D03846BDE8FC81DD
:103E60000120FBE77CB5044600200090019000256E
:103E7000072229466D1C0DF80120220A29466D1CD7
:103E80000DF80120E2B229466D1C0DF80120032235
:103E900069463720FFF782FC064630467CBD2DE997
:103EA000FC410020009001900024002708208DF89C
:103EB0000000012269463720FFF770FC8046B8F108
:103EC000010F17D1002512E03F48015D0246601C3A
:103ED000165C61F31F26A01CC4B2002E05DD5148FC
:103EE000AC3050F8250006FB0077681CC5B2102DD9
:103EF000EADB00E000273846BDE8FC817CB50446DB
:103F000000200090019009208DF8000001226946F0
:103F10003720FFF743FC0546012D01D028467CBD24
:103F20004848007810B90120207001E0002020707E
:103F30000120F4E72DE9F843074688460026B146FC
:103F4000002509E041463846FFF764FF0446012C8E
:103F500000D103E0681CC5B2032DF3DB00BF012CC8
:103F600002D00020BDE8F8837AE03748FFF7D8FC9C
:103F700004460CB9701C00E00020C6B20A2E01DD18
:103F80000020EFE7642004F0F3F96846FFF7B6FF7E
:103F90000446012C61D19DF8000001285DD1642008
:103FA00004F0E6F9FFF77BFF814664204EE0000055
:103FB00062696C6C2D69643A6D616E436F64652053
:103FC0003D2025730D0A0000243E001062696C6CD0
:103FD0002D69643A736E203D2025730D0A000000A0
:103FE00062696C6C2D69643A6D6F64656C203D206C
:103FF00025730D0A0000000001000000020000000F
:1040000062696C6C5F6578705F6C6576656C325F59
:1040100069643A66656174757265203D2025780D86
:104020000A000000643E001072656379636C65727B
:104030005F73657475703A726F75743D25780D0AFB
:1040400000000000220000102400001004F090F98D
:10405000D348FFF799FE484684E7642004F088F9C6
:1040600083E72DE9F84305460027B846CC48803859
:10407000C08A10B90020BDE8F883C9488038C08ADA
:10408000B5FBF0F5002608E0A8B2FFF7EBFE04460A
:10409000012C00D103E0701CC6B2032EF4DB00BF7C
:1040A000012C01D00020E6E72AE0BE48FFF738FCEB
:1040B00004460CB9781C00E00020C7B20A2F01DDCD
:1040C0000020D8E7642004F053F96846FFF716FF94
:1040D0000446012C11D19DF8000001280DD1642067
:1040E00004F046F9FFF7DBFE8046642004F040F957
:1040F000AB48FFF749FE4046BDE7642004F038F9BD
:10410000D3E770B5FFF763FB0546012D01D02846C4
:1041100070BD00240DE0642004F02AF9A148FFF7E7
:10412000FFFBA048007800F0100000B103E0601C25
:10413000C4B2322CEFDB00BF322C01DB0020E7E7FA
:10414000642004F015F996487438FFF749FB6420A1
:1041500004F00EF992488038007B02282ED1FFF738
:1041600062FD642004F004F98D482438FFF76CFDEB
:104170008B48803890F87C0000F00200C8B1012123
:10418000874880388173642004F0F2F88448FFF790
:10419000C6FD642004F0ECF881498039B1F8800054
:1041A000FFF787FB642004F0E3F87D48FFF7ECFDA0
:1041B0000BE000217A488038817306E000217848BE
:1041C000803881735C30FFF7C1FC75488038817B93
:1041D00075A001F04FFE642004F0CAF80020FFF73C
:1041E00048FC0546012D00D192E7002090E770B50C
:1041F0006B4C803C207800F00100C8B1A07800F042
:104200000100A8B16C48008800280BD1FFF779FFA6
:104210000546012D07D1002020706080207840F0F5
:1042200002002070B9E04FF47A7063490880B4E06E
:104230005C48FFF775FB05464DB9604800780528D6
:1042400001DB052004E05D480078401C00E0002010
:104250005A490870012D30D15248007800F0020010
:1042600088B150484088D0B14D48803840884D4989
:10427000498808434A49803948800846007840F018
:10428000010008700BE04748408840B900204449CD
:10429000803948800846007820F0010008704148C5
:1042A000808858B94448808800286AD144480078FA
:1042B000012866D100204249087062E039488088B0
:1042C000012813D1642004F053F8FFF723FC0128E0
:1042D00006D13B49087040F61C403749888050E0C1
:1042E000642004F045F8FFF723FC4AE02D4880885D
:1042F000042803D100203249087042E02948808810
:1043000002281AD12E48007801283AD100202C49E1
:10431000087024494878C11700EB11710911A0EB0E
:104320000111CEB21E48803841681C3050F826007A
:1043300008441B498039486023E01A4880881028C7
:104340001FD11F48007801281BD100201C4908708C
:1043500014494878C11700EB11710911A0EB011144
:10436000CEB20F48803841681C3050F8260008440F
:104370000B4980394860642003F0FAFF0848FFF7D2
:1043800003FD0E480078052807DB207840F0010087
:104390002070608840F001006080002070BD000047
:1043A000C83E001024000010497352656379636CA5
:1043B00065723D25640D0A00344400102B00001086
:1043C0002A000010F8B505460E4617462421FA4883
:1043D00006F014FEF948F84B3A463146009028465C
:1043E00003F0F4FF0446012C00D1F8BD0CB9002005
:1043F000FBE70220F9E710B5002211460820FFF77D
:10440000E1FF0446204610BD70B504460022114667
:104410000920FFF7D7FF0646012E01D0304670BDB8
:10442000E54800786070E4484178807861F31F20A7
:10443000E070E148C078A070DF4800792071A07872
:1044400064214843E080002506E0E0880A2190FBD3
:10445000F1F0E080681CC5B22079A842F5DCD648AE
:104460004179807961F31F20E08300251AE0E08B19
:104470000121A940084030B1E81DCF49095C04F191
:104480002000415503E0002104F12000415504F1D2
:104490002000415DE088414304F1300040F82510E0
:1044A000681CC5B2102DE2DB0120B8E770B50546E7
:1044B000002211460A20FFF785FF0646012E01D093
:1044C000304670BDBC480178407861F31F202880D9
:1044D0000021BB48C0F8981000241DE0688A012123
:1044E000A140084028B1A01CB349095CA81C015593
:1044F00002E00021A81C0155B148D0F89810A81C72
:10450000025DAF48303050F8240002FB0011AC4887
:10451000C0F89810601CC4B2102CDFDB3046D0E726
:1045200038B504200090012269460F20FFF74AFFAA
:104530000446012C04D1A148007808B9012038BDF7
:104540000020FCE7F8B506460320009001226946EA
:104550000F20FFF737FF0746012F1BD19748007840
:10456000002817DD002500240FE09548C08B0121AD
:10457000A140084038B19048015D9148303050F872
:10458000240001FB0055601CC4B2102CEDDB35602B
:104590000120F8BD0020FCE72DE9F05F04468946C4
:1045A0004FF0000800202080002211460B20FFF76A
:1045B00009FF8246BAF1010F02D05046BDE8F09FD4
:1045C0007E48007808B90120F8E7002665E030460B
:1045D000711CCEB278490D5C05F0800030B13046D8
:1045E000711CCEB2744911F800B056E005F04000DD
:1045F000B8B13046711CCEB26F4911F800B0C5F3A6
:1046000001170FB1012F48D16D4805F00F02D0F806
:104610009410303050F8220008446949C1F89400E1
:104620003BE005F0200000B137E005F00F070E2F4A
:1046300031D2DFE807F030070A0D0E1314151A1FE8
:1046400024272A2F48F0800826E048F0080823E0B5
:1046500022E0208840F0020020801DE01CE01BE0EA
:10466000208840F00400208016E0208840F00800F8
:10467000208011E0208840F0100020800CE048F0FD
:10468000080809E048F0100806E0208840F0200003
:10469000208001E000E000BF00BF4848007886426B
:1046A00095DB89F80080012088E7F8B5054645A02C
:1046B00000680090012D2FD1002414E040482030E4
:1046C00004F10801405C60B13D482030405CFF28A7
:1046D00007D09DF800000121A1400843C0B28DF829
:1046E0000000601CC4B2082CE8DB002412E034484F
:1046F0002030005D60B132482030005DFF2807D0D7
:104700009DF801000121A1400843C0B28DF80100CD
:10471000601CC4B2082CEADB00241DE004226946B8
:104720000C20FFF74FFE0646012E10D1012D06D1B9
:104730002348007A20F002002149087205E0204851
:10474000007A40F002001E4908720120F8BD962050
:1047500003F00EFE601CC4B2032CDFDB3046F5E72D
:104760002DE9FF4780460020039000901448C08840
:1047700018B9002004B0BDE8F0871148C088B8FB24
:10478000F0F087B2642F01DD642000E0F8B28146CA
:1047900002208DF80C008DF80D90002516E06420A5
:1047A00003F0E6FD022203A90F20FFF70BFE0446EB
:1047B000012C09D10CE00000503F00102C0000102B
:1047C000743F00100000FFFF681CC5B2032DE6DB3C
:1047D00000BF012C01D00020CCE729E0642003F0C9
:1047E000C7FD02A901A8FFF7D7FE04460CB9701C4B
:1047F00000E0002086B20A2E01DD0020BAE7642026
:1048000003F0B6FDFFF78CFE0446012C10D16420A6
:1048100003F0AEFD6846FFF795FE0446012C07D174
:10482000642003F0A5FDDB48FFF740FE0098A1E7F8
:10483000D4E72DE9F041044600250027002614B9ED
:104840000020BDE8F0812746002510E03846FFF73C
:1048500087FF064635440EB92846F2E7AC4204D934
:10486000671B642003F084FD01E02846E9E7EDE7DB
:104870002DE9F84304460D460520009000202080D5
:104880002870012269460F20FFF79CFD8146B9F18F
:10489000010F3ED1C0480078022802DA0120BDE8AD
:1048A000F8834FF000082EE04046411C01F0FF085D
:1048B000BA490E5C4046411C01F0FF08B7490F5C45
:1048C000032E03D1287840F040002870052E00DC2C
:1048D00019E0062E04D1287840F00200287012E07A
:1048E000112E02D1102F0ED10DE0152E07D1022F5F
:1048F00005D1208840F0400020800120CFE72088AB
:1049000040F400402080A44800788045CCDB0120A2
:10491000C5E74846C3E7F8B50546002000900026E5
:10492000012269460F20FFF74DFD0746012F01D0F8
:104930003846F8BD3046711CCEB29849085C2870E4
:104940003046711CCEB29549085C68703046711CC7
:10495000CEB29249085CA870002408E03046711C71
:10496000CEB28E49095CE81C0155601CC4B20C2C07
:10497000F4DB002409E03046711CCEB28749095CA3
:1049800005F10F000155601CC4B20C2CF3DB30465E
:10499000711CCEB28149085CE8763046711CCEB2FB
:1049A0007E49095C2977002409E03046711CCEB2AB
:1049B0007A49095C05F11D000155601CC4B2042C44
:1049C000F3DB0120B5E71CB575A103C9CDE90001F2
:1049D000052269460F20FFF7F5FC0446012C00D1A3
:1049E0001CBD0020FCE77CB56A4E0C3EFFF703FDC2
:1049F0000546012D01D028467CBD00240FE09620FD
:104A000003F0B6FC01A96846FFF7C6FD05469DF810
:104A1000040000F0100000B103E0601CC4B2322CAE
:104A2000EDDB00BF322C01DB0020E5E7962003F030
:104A30009FFCFFF7C8FF0546962003F099FC30461F
:104A4000FFF7E2FC0546962003F092FC06F17000A9
:104A5000FFF761FF0546962003F08AFC0020FFF770
:104A600024FE0546012D00D1C6E70020C4E77CB531
:104A7000484C241F207800F00100B0B1A07800F06D
:104A8000010090B148484088002808D1FFF7ABFFEB
:104A90000546012D04D1002060800220207077E0BF
:104AA0004FF47A704049488072E040480078092805
:104AB00049D2DFE800F00523062407250826430035
:104AC00000BF00BF00BF01A96846FFF765FD0546AE
:104AD0009DF8040000F0800018B1207840F08000BC
:104AE0002070BDF8000040B16088BDF80010084398
:104AF0006080207840F00100207029E000BF00BFF6
:104B000000BF01A96846FFF7B3FE0546BDF80000E7
:104B100040B16088BDF8001008436080207840F004
:104B2000010020709DF8040000F0400028B12078BA
:104B300020F0010020700020608009E01548FFF798
:104B4000B5FC054604E0002018490870012500BFA7
:104B500000BF4DB916480078052801DB052004E0A8
:104B600013480078401C00E00020114908700846F6
:104B70000078052807DB207840F00100207060886D
:104B800040F00100608009480078401C0749087027
:104B900000207CBD803F00102C000010503F001012
:104BA00001FFFFFFFF000000344400102D00001043
:104BB0002E000010F8B505460C4616460CB900202C
:104BC000F8BD23462A460221A020009602F0F1FFFC
:104BD000F6E7F8B505460C4616460CB90020F8BDB8
:104BE00023462A460221A020009602F0A3FFF6E702
:104BF0002DE9F04100244FF40071FE4806F0FEF963
:104C00004FF40072FB490020FFF7E3FF2146641CCC
:104C1000F848405CE52802D00020BDE8F08120463D
:104C2000611C8CB2F349085CF34908702046611C92
:104C30008CB2F049085CF04948702046611C8CB287
:104C4000EC49085CEC498870002515E0E948005DF6
:104C50000106E84A601C105C41EA0041A01C105C9F
:104C600041EA0020E11C515C0843E44941F8250079
:104C7000201D84B2681CC5B2102DE7DB002516E0AC
:104C8000DC48005D0106DB4A601C105C41EA004123
:104C9000A01C105C41EA0020E11C515C0843D8498B
:104CA00001EB0511C860201D84B2681CC5B2082D37
:104CB000E6DB2046611C8CB2CE49085CCE49C87048
:104CC000002528E005EB450000EBC501CA48001DA2
:104CD00000EB8107C748005D0106C64A601C105CF6
:104CE00041EA0041A01C105C41EA0020E11C515C3B
:104CF00008433860201D84B2002608E02046611C6D
:104D00008CB2BC49095C381D8155701CC6B2082E96
:104D1000F4DB681CC5B2082DD4DB002527E005EBC9
:104D2000450000EBC501B74800EB8107B148005DC5
:104D30000106B04A601C105C41EA0041A01C105CF6
:104D400041EA0020E11C515C08433860201D84B218
:104D5000002608E02046611C8CB2A649095C381D7B
:104D60008155701CC6B2082EF4DB681CC5B2082D34
:104D7000D5DB2146A4A001F07DF801204DE72DE907
:104D8000F0410024E5222146641C9A4842549A4886
:104D900002782146641C974842549748427821463D
:104DA000641C94484254944882782146641C91487B
:104DB0004254002526E0914850F82500000E214677
:104DC000621C94B28B4A50548C4850F82500C0F3B2
:104DD00007422046611C8CB286490A54874830F845
:104DE0002500C0F307222046611C8CB281490A5479
:104DF000824810F825202046611C8CB27D490A5457
:104E0000681CC5B2102DD6DB00252AE07C4800EBDB
:104E10000510C068000E2146621C94B2754A5054B9
:104E2000774800EB0510C068C0F307422046611CBC
:104E30008CB270490A54724800EB05108089C0F3A7
:104E400007222046611C8CB26A490A546C4800EB68
:104E50000510027B2046611C8CB266490A54681C0E
:104E6000C5B2082DD2DB6448C2782046611C8CB2E2
:104E700060490A54002533E005EB450000EBC5010D
:104E80005D48001D00EB81063068000E2146621C63
:104E900094B2584A50543068C0F307422046611C0F
:104EA0008CB254490A543088C0F307222046611C52
:104EB0008CB250490A5432782046611C8CB24D495C
:104EC0000A54002708E0301DC25D2046611C8CB2E8
:104ED00048490A54781CC7B2082FF4DB681CC5B2D5
:104EE000082DC9DB002532E005EB450000EBC501CC
:104EF000444800EB81063068000E2146621C94B2E3
:104F00003C4A50543068C0F307422046611C8CB2C2
:104F100038490A543088C0F307222046611C8CB2FD
:104F200034490A5432782046611C8CB231490A5403
:104F3000002708E0301DC25D2046611C8CB22D495F
:104F40000A54781CC7B2082FF4DB681CC5B2082DC0
:104F5000CADB224627490020FFF72CFE0120BDE8CE
:104F6000F08138B500244FF40071224806F046F86D
:104F70004FF400721F491046FFF72BFE2146641CB8
:104F80001C48405CE52804D024A000F073FF0020FA
:104F900038BD1848005D0106164A601C105C41EAE5
:104FA0000041A01C105C41EA0020E11C515C084358
:104FB0001F490860201D84B21046005D0106601C78
:104FC000105C41EA0041A01C105C41EA0020E11C99
:104FD000515C084316494860201D84B21046005DAC
:104FE0000106601C105C41EA0041A01C105C41EA13
:104FF00000201FE01440001000310010504200104B
:10500000C43300106432001052656164466C6173F1
:10501000683A73697A653D25640D0A006275665BBE
:10502000696E2B2B5D20213D20307845350D0A001F
:1050300014420010E11C515C08439C49C860201DCB
:1050400084B21046005D0106601C105C41EA00411C
:10505000A01C105C41EA0020E11C515C084393490C
:105060000861201D84B20846C068009008460369A4
:10507000426801688EA000F0FDFE00251DE0974803
:10508000005D0106954A601C105C41EA0041A01CCD
:10509000105C41EA0020E11C515C0843834918314F
:1050A00041F82500201D84B2084650F825202946E5
:1050B0008BA000F0DFFE681C85B2082DDFDB87487F
:1050C000005D0106854A601C105C41EA0041A01C9D
:1050D000105C41EA0020E11C515C084373494861BF
:1050E000201D84B2214685A000F0C4FE01204FE7B8
:1050F00070B50024E5222146641C784842546B4870
:105100000068010E2246641C744881546748006898
:10511000C0F307422146641C70484254634800882B
:10512000C0F307222146641C6C4842545F48027851
:105130002146641C694842545C484068010E22467E
:10514000641C6648815459484068C0F307422146B0
:10515000641C6248425455488088C0F307222146A7
:10516000641C5E484254514802792146641C5B48E5
:1051700042544E48C068010E2246641C5748815470
:105180004A48C068C0F307422146641C5348425451
:1051900046488089C0F307222146641C4F48425488
:1051A0004248027B2146641C4C4842543F480069F7
:1051B000010E2246641C494881543C480069C0F3F2
:1051C00007422146641C454842543848008AC0F3CF
:1051D00007222046611C8CB240490A543348027CA5
:1051E0002046611C8CB23D490A5400252AE02F4814
:1051F000183050F82500000E2146621C94B2374A40
:1052000050542A48183050F82500C0F30742204671
:10521000611C8CB231490A542448183030F82500FA
:10522000C0F307222046611C8CB22C490A541F4847
:10523000183010F825202046611C8CB227490A54EA
:10524000681C85B2082DD2DB18484069000E214643
:10525000621C94B2214A505414484069C0F307427A
:105260002046611C8CB21D490A541048808AC0F344
:1052700007222046611C8CB218490A540B48027D53
:105280002046611C8CB215490A5422464FF4007026
:10529000FFF790FC012070BD10B53821034805F0E0
:1052A000ADFEFFF725FF012010BD000014420010E5
:1052B000464C4153483A62526563763D25642C63FF
:1052C000526563763D25642C696F753D25642C63BA
:1052D00068616E6765643D25640D0A001440001026
:1052E000466C6173682D68704368616E6765645BC6
:1052F00025645D3D2025640D0A000000726561642F
:105300004C6F673A73697A653D25640D0A000000A9
:105310000246102A00DC0AB900207047501EA94B33
:1053200043F820100120F8E7A748006840F0C0408B
:10533000A5490860A5480078012805D10846C0693C
:1053400040F0C040C86105E09F48806940F0C0401F
:105350009D49886100209B49091F08700120704702
:1053600010B504469848006A994908409649086271
:105370009849012002F0D9FC94480470FFF7D4FF4B
:10538000012010BD9048006840F0C0408E49086080
:105390008E480078012805D10846806940F0C04059
:1053A000886105E08848C06940F0C0408649C8610E
:1053B00001208449091F0870704770B58248406B0E
:1053C000C0F380258048406BC0F3402045EA40058B
:1053D0007D48406BC0F3002045EA80057A48406B69
:1053E000C0F3001045EAC0057748406BC0F34000A9
:1053F00045EA00157448406B00F0010045EA40158D
:10540000E843C6B206F03F06042E2FD005DC5EB19D
:10541000012E27D0022E31D126E0082E28D0102EC2
:1054200028D0202E2AD127E06B480078012814D1FB
:10543000002069490870694802686948017869A0D4
:1054400000F018FD66480078401E5E4951F82000C3
:105450006249096808446149086000206049087091
:1054600000240DE006240BE0052409E0042407E0F5
:10547000032405E0022403E0012401E0002400BF2E
:1054800000BF55480078A8B955480078002801DDCC
:10549000012000E0002052490978A14201D10121F8
:1054A00000E00021084018B101204B49087001E0DC
:1054B0004B48047070BD4448006840F0C040424909
:1054C000086042480078012805D10846C06940F0CC
:1054D000C040C86105E03C48806940F0C0403A499E
:1054E000886100203749091F08700120704710B5F6
:1054F00004463548006C20F400603349086435499F
:10550000012002F012FC31480470FFF7D4FF0120A3
:1055100010BD2D48006840F0C0402B4908602B4862
:105520000078012805D10846806940F0C0408861B4
:1055300005E02548C06940F0C0402349C86101200A
:105540002049091F087070471F49096C21F4006148
:105550001D4A11641146496DC1F3C02010B10128E4
:1055600012D10EE027490978012907D11549091FF1
:1055700049681A4A12681144184A11602149087092
:1055800003E02049087000E000BF00BF70471348E7
:10559000006870470146114A1268914206D80F4AC6
:1055A0001268521A0D4B1A60002005E00B4A12686F
:1055B000881A0022094B1A6070470248001F0078C1
:1055C000704700005042001000C009203000001059
:1055D000FCFEF8FF005307003900001034000010F3
:1055E000380000105072654368616E6E656C3D2531
:1055F000642072656376416D6F756E743D25640D30
:105600000A0000003A00001010B500F0C2FB00F0E4
:10561000A2FC00F0FEFD00F046FF00F0BDFF02F02E
:1056200030FAF749002002F080FB02F0FBFD012078
:1056300002F0E4FD02F0F5F8F2A0FCF72BFF40F2D7
:10564000DC5002F095FEF1A0FCF724FF02F07DFD96
:1056500002F0A9FDEFA0FCF71DFF642002F088FE18
:1056600010BD10B54FF48471EC4805F0C7FCA021C3
:10567000EB4805F0C3FC4FF43171EA4805F0BEFC7D
:10568000FFF7B6FAFFF76DFC0220FBF7F1FF0220EF
:10569000FBF7FCFF0120FCF716F810BD10B504461F
:1056A000FBF7A8FFE049087008460078012806D1FA
:1056B0000021FF20FDF7F8FBFBF78CF809E0DA4842
:1056C0000078022805D10021FF20FDF7EDFBFBF754
:1056D00091FED548007888B1172C04D10021FF2015
:1056E000FDF7E2FB03E00121FF20FDF7DDFB0020D9
:1056F000CD490870FCF75DFA012010BD0020FCE7E1
:105700002DE9F05F4FF0000BFCF70DF98346BBF17C
:10571000000F08DDC5A0FCF7BDFEC82002F028FE82
:105720000120BDE8F09F002600270025002421E08D
:10573000C04800EB0410C06800B919E0681CC5B28D
:10574000BC4800EB04108078012802D1701CC6B25E
:105750000DE0B84800EB04108078022805D0B54869
:1057600000EB04108078032801D1781CC7B200BF79
:10577000601CC4B2082CDBDBAF4207DBAEA0FCF739
:1057800089FEC82002F0F4FD0120CAE7AE4207DB23
:10579000ABA0FCF77FFEC82002F0EAFD0120C0E7C5
:1057A000A9480078002857DD4FF00008C1460024C2
:1057B0001CE0A5480078401E00EB8000A34901EBE7
:1057C000C000083050F824A09AF80500002803DD36
:1057D00008F1010000F0FF089AF80200012803D147
:1057E00009F1010000F0FF09601CC4B2964800787E
:1057F000401E00EB8000954911F83000A042D8DC33
:1058000091480078401E00EB800011F830004045C0
:1058100010DC8FA0FCF73EFE4FF47A7002F0A8FD7A
:105820008D480068FDF7C0F94FF47A7002F0A0FDD2
:10583000012076E784480078401E00EB8000834911
:1058400011F83000484507DCC82002F091FD7CA02B
:10585000FCF720FE012064E7002062E710B5024655
:105860000B4600207D4C20707D4C207000211AE0FA
:1058700001EB410000EBC1046A48001D50F8240010
:1058800000B90EE001EB410000EBC1046548001DCA
:1058900050F82400904203D1481C704C207004E062
:1058A00000BF481CC1B20829E2DB00BF002118E09C
:1058B00001EB410000EBC1046A4850F8240000B934
:1058C0000DE001EB410000EBC104664850F82400F4
:1058D000984203D1481C624C207004E000BF481C71
:1058E000C1B20829E4DB00BF5D48007800BB00219D
:1058F0001BE001EB410000EBC1045A4850F82400C2
:1059000000B910E001EB410000EBC104554850F82C
:105910002400B3FBF0F400FB143018B9481C504CC1
:10592000207004E000BF481CC1B20829E1DB00BFC1
:105930002AB94D480068834201D2002010BD2AB91F
:105940004A48808A002801DD0020F7E70120F5E7BA
:1059500038B5044646480068E16808444449086090
:1059600008464068A1680844414948600846006903
:10597000A16908443E4908610846C0686169084455
:105980003B49C860A06948610846C0680090084665
:1059900003694268016837A000F06CFA002514E042
:1059A0003348183050F8251004F11C0030F8150069
:1059B00001442F48183040F8251050F8252029467A
:1059C00037A000F057FA681CC5B2082DE8DBFFF7D6
:1059D0008FFB38BD10B50446012C02D13549087043
:1059E00010BD2248408A002872D132480078012830
:1059F00062D0022864D0032866D004286ED169E002
:105A000080A903004555312E35000000452D2D2D70
:105A100000000000452D2D3100000000483E001020
:105A2000743F0010003100103C000010424C45450E
:105A300000000000C433001048504545000000003D
:105A400048503030000000002000001044340010A6
:105A50002323232300000000400000103D0000101D
:105A60003E000010643200101C000010344400108E
:105A7000144200104C4F473A62526563763D2564EC
:105A80002C63526563763D25642C696F753D2564F2
:105A90002C6368616E6765643D25640D0A00000033
:105AA00068704368616E6765645B25645D3D2025B1
:105AB000640D0A004400001076A0FCF7EBFC11E036
:105AC00076A0FCF7E7FC0DE076A0FCF7E3FC09E02C
:105AD00017E003E075A0FCF7DDFC03E00120754949
